{
  "_format": "hh-sol-artifact-1",
  "contractName": "WarrantyToken",
  "sourceName": "contracts/Warranty.sol",
  "abi": [
    {
      "inputs": [
        {
          "internalType": "address",
          "name": "_company",
          "type": "address"
        },
        {
          "internalType": "uint256",
          "name": "_productId",
          "type": "uint256"
        }
      ],
      "stateMutability": "nonpayable",
      "type": "constructor"
    },
    {
      "anonymous": false,
      "inputs": [
        {
          "indexed": true,
          "internalType": "address",
          "name": "owner",
          "type": "address"
        },
        {
          "indexed": true,
          "internalType": "address",
          "name": "approved",
          "type": "address"
        },
        {
          "indexed": true,
          "internalType": "uint256",
          "name": "tokenId",
          "type": "uint256"
        }
      ],
      "name": "Approval",
      "type": "event"
    },
    {
      "anonymous": false,
      "inputs": [
        {
          "indexed": true,
          "internalType": "address",
          "name": "owner",
          "type": "address"
        },
        {
          "indexed": true,
          "internalType": "address",
          "name": "operator",
          "type": "address"
        },
        {
          "indexed": false,
          "internalType": "bool",
          "name": "approved",
          "type": "bool"
        }
      ],
      "name": "ApprovalForAll",
      "type": "event"
    },
    {
      "anonymous": false,
      "inputs": [
        {
          "indexed": true,
          "internalType": "address",
          "name": "from",
          "type": "address"
        },
        {
          "indexed": true,
          "internalType": "address",
          "name": "to",
          "type": "address"
        },
        {
          "indexed": true,
          "internalType": "uint256",
          "name": "tokenId",
          "type": "uint256"
        }
      ],
      "name": "Transfer",
      "type": "event"
    },
    {
      "inputs": [
        {
          "internalType": "address",
          "name": "_approved",
          "type": "address"
        },
        {
          "internalType": "uint256",
          "name": "_tokenId",
          "type": "uint256"
        }
      ],
      "name": "approve",
      "outputs": [],
      "stateMutability": "nonpayable",
      "type": "function"
    },
    {
      "inputs": [
        {
          "internalType": "address",
          "name": "_owner",
          "type": "address"
        }
      ],
      "name": "balanceOf",
      "outputs": [
        {
          "internalType": "uint256",
          "name": "",
          "type": "uint256"
        }
      ],
      "stateMutability": "view",
      "type": "function"
    },
    {
      "inputs": [],
      "name": "decimals",
      "outputs": [
        {
          "internalType": "uint8",
          "name": "",
          "type": "uint8"
        }
      ],
      "stateMutability": "view",
      "type": "function"
    },
    {
      "inputs": [
        {
          "internalType": "uint256",
          "name": "_tokenId",
          "type": "uint256"
        },
        {
          "internalType": "uint256",
          "name": "_expirationDate",
          "type": "uint256"
        }
      ],
      "name": "extendWarranty",
      "outputs": [],
      "stateMutability": "nonpayable",
      "type": "function"
    },
    {
      "inputs": [
        {
          "internalType": "uint256",
          "name": "_tokenId",
          "type": "uint256"
        }
      ],
      "name": "getApproved",
      "outputs": [
        {
          "internalType": "address",
          "name": "",
          "type": "address"
        }
      ],
      "stateMutability": "view",
      "type": "function"
    },
    {
      "inputs": [
        {
          "internalType": "address",
          "name": "_operator",
          "type": "address"
        },
        {
          "internalType": "uint256",
          "name": "_tokenId",
          "type": "uint256"
        }
      ],
      "name": "isApprovedForAll",
      "outputs": [
        {
          "internalType": "bool",
          "name": "",
          "type": "bool"
        }
      ],
      "stateMutability": "view",
      "type": "function"
    },
    {
      "inputs": [
        {
          "internalType": "address",
          "name": "owner",
          "type": "address"
        },
        {
          "internalType": "address",
          "name": "operator",
          "type": "address"
        }
      ],
      "name": "isApprovedForAll",
      "outputs": [
        {
          "internalType": "bool",
          "name": "",
          "type": "bool"
        }
      ],
      "stateMutability": "view",
      "type": "function"
    },
    {
      "inputs": [
        {
          "internalType": "uint256",
          "name": "_tokenId",
          "type": "uint256"
        }
      ],
      "name": "isExpired",
      "outputs": [
        {
          "internalType": "bool",
          "name": "",
          "type": "bool"
        }
      ],
      "stateMutability": "view",
      "type": "function"
    },
    {
      "inputs": [
        {
          "internalType": "address",
          "name": "_owner",
          "type": "address"
        },
        {
          "internalType": "uint256",
          "name": "_expirationDate",
          "type": "uint256"
        },
        {
          "internalType": "uint256",
          "name": "_productId",
          "type": "uint256"
        },
        {
          "internalType": "string",
          "name": "_tokenURI",
          "type": "string"
        }
      ],
      "name": "mint",
      "outputs": [
        {
          "internalType": "uint256",
          "name": "",
          "type": "uint256"
        }
      ],
      "stateMutability": "nonpayable",
      "type": "function"
    },
    {
      "inputs": [],
      "name": "name",
      "outputs": [
        {
          "internalType": "string",
          "name": "",
          "type": "string"
        }
      ],
      "stateMutability": "view",
      "type": "function"
    },
    {
      "inputs": [
        {
          "internalType": "uint256",
          "name": "_tokenId",
          "type": "uint256"
        }
      ],
      "name": "ownerOf",
      "outputs": [
        {
          "internalType": "address",
          "name": "",
          "type": "address"
        }
      ],
      "stateMutability": "view",
      "type": "function"
    },
    {
      "inputs": [
        {
          "internalType": "uint256",
          "name": "_tokenId",
          "type": "uint256"
        }
      ],
      "name": "recordRepair",
      "outputs": [],
      "stateMutability": "view",
      "type": "function"
    },
    {
      "inputs": [
        {
          "internalType": "uint256",
          "name": "_tokenId",
          "type": "uint256"
        }
      ],
      "name": "requestRefund",
      "outputs": [],
      "stateMutability": "view",
      "type": "function"
    },
    {
      "inputs": [
        {
          "internalType": "address",
          "name": "from",
          "type": "address"
        },
        {
          "internalType": "address",
          "name": "to",
          "type": "address"
        },
        {
          "internalType": "uint256",
          "name": "tokenId",
          "type": "uint256"
        }
      ],
      "name": "safeTransferFrom",
      "outputs": [],
      "stateMutability": "nonpayable",
      "type": "function"
    },
    {
      "inputs": [
        {
          "internalType": "address",
          "name": "from",
          "type": "address"
        },
        {
          "internalType": "address",
          "name": "to",
          "type": "address"
        },
        {
          "internalType": "uint256",
          "name": "tokenId",
          "type": "uint256"
        },
        {
          "internalType": "bytes",
          "name": "data",
          "type": "bytes"
        }
      ],
      "name": "safeTransferFrom",
      "outputs": [],
      "stateMutability": "nonpayable",
      "type": "function"
    },
    {
      "inputs": [
        {
          "internalType": "address",
          "name": "operator",
          "type": "address"
        },
        {
          "internalType": "bool",
          "name": "approved",
          "type": "bool"
        }
      ],
      "name": "setApprovalForAll",
      "outputs": [],
      "stateMutability": "nonpayable",
      "type": "function"
    },
    {
      "inputs": [
        {
          "internalType": "address",
          "name": "_operator",
          "type": "address"
        },
        {
          "internalType": "bool",
          "name": "_approved",
          "type": "bool"
        },
        {
          "internalType": "uint256",
          "name": "_tokenId",
          "type": "uint256"
        }
      ],
      "name": "setApprovalForAll",
      "outputs": [],
      "stateMutability": "nonpayable",
      "type": "function"
    },
    {
      "inputs": [
        {
          "internalType": "uint256",
          "name": "_tokenId",
          "type": "uint256"
        },
        {
          "internalType": "string",
          "name": "_uri",
          "type": "string"
        }
      ],
      "name": "setTokenURI",
      "outputs": [],
      "stateMutability": "nonpayable",
      "type": "function"
    },
    {
      "inputs": [
        {
          "internalType": "bytes4",
          "name": "interfaceId",
          "type": "bytes4"
        }
      ],
      "name": "supportsInterface",
      "outputs": [
        {
          "internalType": "bool",
          "name": "",
          "type": "bool"
        }
      ],
      "stateMutability": "view",
      "type": "function"
    },
    {
      "inputs": [],
      "name": "symbol",
      "outputs": [
        {
          "internalType": "string",
          "name": "",
          "type": "string"
        }
      ],
      "stateMutability": "view",
      "type": "function"
    },
    {
      "inputs": [
        {
          "internalType": "uint256",
          "name": "tokenId",
          "type": "uint256"
        }
      ],
      "name": "tokenURI",
      "outputs": [
        {
          "internalType": "string",
          "name": "",
          "type": "string"
        }
      ],
      "stateMutability": "view",
      "type": "function"
    },
    {
      "inputs": [
        {
          "internalType": "uint256",
          "name": "",
          "type": "uint256"
        }
      ],
      "name": "tokenURIs",
      "outputs": [
        {
          "internalType": "string",
          "name": "",
          "type": "string"
        }
      ],
      "stateMutability": "view",
      "type": "function"
    },
    {
      "inputs": [],
      "name": "totalSupply",
      "outputs": [
        {
          "internalType": "uint256",
          "name": "",
          "type": "uint256"
        }
      ],
      "stateMutability": "view",
      "type": "function"
    },
    {
      "inputs": [
        {
          "internalType": "address",
          "name": "_from",
          "type": "address"
        },
        {
          "internalType": "address",
          "name": "_to",
          "type": "address"
        },
        {
          "internalType": "uint256",
          "name": "_tokenId",
          "type": "uint256"
        }
      ],
      "name": "transferFrom",
      "outputs": [],
      "stateMutability": "nonpayable",
      "type": "function"
    },
    {
      "inputs": [
        {
          "internalType": "uint256",
          "name": "",
          "type": "uint256"
        }
      ],
      "name": "warranties",
      "outputs": [
        {
          "internalType": "address",
          "name": "owner",
          "type": "address"
        },
        {
          "internalType": "address",
          "name": "company",
          "type": "address"
        },
        {
          "internalType": "uint256",
          "name": "expirationDate",
          "type": "uint256"
        },
        {
          "internalType": "uint256",
          "name": "productId",
          "type": "uint256"
        }
      ],
      "stateMutability": "view",
      "type": "function"
    }
  ],
  "bytecode": "0x60806040526006805460ff191690553480156200001b57600080fd5b5060405162001f2b38038062001f2b8339810160408190526200003e9162000244565b604080518082018252600e81526d2bb0b93930b73a3c902a37b5b2b760911b6020808301918252835180850190945260048452635752545960e01b90840152815191929162000090916000916200019e565b508051620000a69060019060208401906200019e565b505060016007819055604080516080810182526001600160a01b03958616808252602080830191825242938301938452606083019687526000949094526008909352517fad67d757c34507f157cacfa2e3153e9f260a2244f30428821be7be64587ac55f80549187166001600160a01b031992831617905591517fad67d757c34507f157cacfa2e3153e9f260a2244f30428821be7be64587ac5608054919096169216919091179093555090517fad67d757c34507f157cacfa2e3153e9f260a2244f30428821be7be64587ac56155517fad67d757c34507f157cacfa2e3153e9f260a2244f30428821be7be64587ac56255620002bd565b828054620001ac9062000280565b90600052602060002090601f016020900481019282620001d057600085556200021b565b82601f10620001eb57805160ff19168380011785556200021b565b828001600101855582156200021b579182015b828111156200021b578251825591602001919060010190620001fe565b50620002299291506200022d565b5090565b5b808211156200022957600081556001016200022e565b600080604083850312156200025857600080fd5b82516001600160a01b03811681146200027057600080fd5b6020939093015192949293505050565b600181811c908216806200029557607f821691505b60208210811415620002b757634e487b7160e01b600052602260045260246000fd5b50919050565b611c5e80620002cd6000396000f3fe608060405234801561001057600080fd5b50600436106101a35760003560e01c80636c8b703f116100ee578063b88d4fde11610097578063d9548e5311610071578063d9548e53146103e5578063e985e9c51461040b578063f68e237514610447578063f8adcd6d1461045a57600080fd5b8063b88d4fde146103ac578063bb7fde71146103bf578063c87b56dd146103d257600080fd5b806395d89b41116100c857806395d89b411461037e578063a22cb46514610386578063a4b2409e1461039957600080fd5b80636c8b703f146102eb57806370a08231146102fe5780638c5382261461031157600080fd5b806318160ddd11610150578063313ce5671161012a578063313ce567146102b957806342842e0e146102d85780636352211e146101e557600080fd5b806318160ddd146102615780631caef7711461027857806323b872dd146102a657600080fd5b8063095ea7b311610181578063095ea7b3146102265780630ccba6fe1461023b578063162094c41461024e57600080fd5b806301ffc9a7146101a857806306fdde03146101d0578063081812fc146101e5575b600080fd5b6101bb6101b6366004611748565b61046d565b60405190151581526020015b60405180910390f35b6101d861050a565b6040516101c791906117bd565b61020e6101f33660046117d0565b6000908152600860205260409020546001600160a01b031690565b6040516001600160a01b0390911681526020016101c7565b610239610234366004611805565b61059c565b005b61023961024936600461182f565b61066c565b61023961025c3660046118fd565b610710565b61026a60075481565b6040519081526020016101c7565b6101bb610286366004611805565b6000908152600860205260409020546001600160a01b0390811691161490565b6102396102b4366004611944565b6107f8565b6006546102c69060ff1681565b60405160ff90911681526020016101c7565b6102396102e6366004611944565b610945565b6101d86102f93660046117d0565b610960565b61026a61030c366004611980565b6109fa565b61035361031f3660046117d0565b60086020526000908152604090208054600182015460028301546003909301546001600160a01b0392831693919092169184565b604080516001600160a01b0395861681529490931660208501529183015260608201526080016101c7565b6101d8610a52565b6102396103943660046119ab565b610a61565b6102396103a73660046117d0565b610a70565b6102396103ba3660046119de565b610b46565b61026a6103cd366004611a5a565b610bd4565b6101d86103e03660046117d0565b610cc4565b6101bb6103f33660046117d0565b60009081526008602052604090206002015442101590565b6101bb610419366004611aaf565b6001600160a01b03918216600090815260056020908152604080832093909416825291909152205460ff1690565b6102396104553660046117d0565b610d38565b610239610468366004611ad9565b610dc7565b60006001600160e01b031982167f80ac58cd0000000000000000000000000000000000000000000000000000000014806104d057506001600160e01b031982167f5b5e139f00000000000000000000000000000000000000000000000000000000145b8061050457507f01ffc9a7000000000000000000000000000000000000000000000000000000006001600160e01b03198316145b92915050565b60606000805461051990611b05565b80601f016020809104026020016040519081016040528092919081815260200182805461054590611b05565b80156105925780601f1061056757610100808354040283529160200191610592565b820191906000526020600020905b81548152906001019060200180831161057557829003601f168201915b5050505050905090565b6000818152600860205260409020546001600160a01b031633146106135760405162461bcd60e51b8152602060048201526024808201527f53656e646572206973206e6f7420746865206f776e6572206f6620746865207460448201526337b5b2b760e11b60648201526084015b60405180910390fd5b60008181526008602052604080822080546001600160a01b0319166001600160a01b0386169081179091559051839233917f8c5be1e5ebec7d5bd14f71427d1e84f3dd0314c0f7b2291e5b200ac8c7c3b9259190a45050565b6000828152600860205260409020600101546001600160a01b031633146106fb5760405162461bcd60e51b815260206004820152602f60248201527f53656e646572206973206e6f742074686520636f6d70616e792074686174206960448201527f73737565642074686520746f6b656e0000000000000000000000000000000000606482015260840161060a565b60009182526008602052604090912060020155565b6007548211156107625760405162461bcd60e51b815260206004820152601760248201527f546f6b656e20494420646f6573206e6f74206578697374000000000000000000604482015260640161060a565b6000828152600860205260409020546001600160a01b031633146107d45760405162461bcd60e51b8152602060048201526024808201527f53656e646572206973206e6f7420746865206f776e6572206f6620746865207460448201526337b5b2b760e11b606482015260840161060a565b600082815260096020908152604090912082516107f392840190611699565b505050565b6000818152600860205260409020546001600160a01b0384811691161461086d5760405162461bcd60e51b8152602060048201526024808201527f53656e646572206973206e6f7420746865206f776e6572206f6620746865207460448201526337b5b2b760e11b606482015260840161060a565b6001600160a01b0382166108e95760405162461bcd60e51b815260206004820152602360248201527f43616e6e6f74207472616e7366657220746f20746865207a65726f206164647260448201527f6573730000000000000000000000000000000000000000000000000000000000606482015260840161060a565b60008181526008602052604080822080546001600160a01b0319166001600160a01b0386811691821790925591518493918716917fddf252ad1be2c89b69c2b068fc378daa952ba7f163c4a11628f55a4df523b3ef91a4505050565b6107f383838360405180602001604052806000815250610b46565b6009602052600090815260409020805461097990611b05565b80601f01602080910402602001604051908101604052809291908181526020018280546109a590611b05565b80156109f25780601f106109c7576101008083540402835291602001916109f2565b820191906000526020600020905b8154815290600101906020018083116109d557829003601f168201915b505050505081565b60008060015b6007548111610a4b576000818152600860205260409020546001600160a01b0385811691161415610a3957610a36826001610e77565b91505b80610a4381611b56565b915050610a00565b5092915050565b60606001805461051990611b05565b610a6c338383610e83565b5050565b6000818152600860205260409020546001600160a01b03163314610ae25760405162461bcd60e51b8152602060048201526024808201527f53656e646572206973206e6f7420746865206f776e6572206f6620746865207460448201526337b5b2b760e11b606482015260840161060a565b600081815260086020526040902060020154421015610b435760405162461bcd60e51b815260206004820152601460248201527f546f6b656e206973206e6f742065787069726564000000000000000000000000604482015260640161060a565b50565b610b503383610f52565b610bc25760405162461bcd60e51b815260206004820152602d60248201527f4552433732313a2063616c6c6572206973206e6f7420746f6b656e206f776e6560448201527f72206f7220617070726f76656400000000000000000000000000000000000000606482015260840161060a565b610bce84848484610fcd565b50505050565b600754600090610be5906001610e77565b600755604080516080810182526001600160a01b0387168152336020820152908101610c114287611b71565b8152602090810185905260078054600090815260088352604090819020845181546001600160a01b03199081166001600160a01b0392831617835594860151600183018054909616911617909355830151600283015560609092015160039091015554610c7e9083610710565b6007546040516001600160a01b038716906000907fddf252ad1be2c89b69c2b068fc378daa952ba7f163c4a11628f55a4df523b3ef908290a4506007545b949350505050565b6060610ccf82611056565b6000610ce660408051602081019091526000815290565b90506000815111610d065760405180602001604052806000815250610d31565b80610d10846110ba565b604051602001610d21929190611b89565b6040516020818303038152906040525b9392505050565b6000818152600860205260409020600101546001600160a01b03163314610b435760405162461bcd60e51b815260206004820152602f60248201527f53656e646572206973206e6f742074686520636f6d70616e792074686174206960448201527f73737565642074686520746f6b656e0000000000000000000000000000000000606482015260840161060a565b6000818152600860205260409020546001600160a01b03163314610e395760405162461bcd60e51b8152602060048201526024808201527f53656e646572206973206e6f7420746865206f776e6572206f6620746865207460448201526337b5b2b760e11b606482015260840161060a565b81610e45576000610e47565b825b60009182526008602052604090912080546001600160a01b0319166001600160a01b039092169190911790555050565b6000610d318284611b71565b816001600160a01b0316836001600160a01b03161415610ee55760405162461bcd60e51b815260206004820152601960248201527f4552433732313a20617070726f766520746f2063616c6c657200000000000000604482015260640161060a565b6001600160a01b03838116600081815260056020908152604080832094871680845294825291829020805460ff191686151590811790915591519182527f17307eab39ab6107e8899845ad3d59bd9653f200f220920489ca2b5937696c31910160405180910390a3505050565b600080610f5e83611164565b9050806001600160a01b0316846001600160a01b03161480610fa557506001600160a01b0380821660009081526005602090815260408083209388168352929052205460ff165b80610cbc575050506000908152600860205260409020546001600160a01b0390811691161490565b610fd88484846111c9565b610fe4848484846113cf565b610bce5760405162461bcd60e51b815260206004820152603260248201527f4552433732313a207472616e7366657220746f206e6f6e20455243373231526560448201527f63656976657220696d706c656d656e7465720000000000000000000000000000606482015260840161060a565b6000818152600260205260409020546001600160a01b0316610b435760405162461bcd60e51b815260206004820152601860248201527f4552433732313a20696e76616c696420746f6b656e2049440000000000000000604482015260640161060a565b606060006110c78361152f565b600101905060008167ffffffffffffffff8111156110e7576110e7611851565b6040519080825280601f01601f191660200182016040528015611111576020820181803683370190505b5090508181016020015b600019017f3031323334353637383961626364656600000000000000000000000000000000600a86061a8153600a85049450846111575761115c565b61111b565b509392505050565b6000818152600260205260408120546001600160a01b0316806105045760405162461bcd60e51b815260206004820152601860248201527f4552433732313a20696e76616c696420746f6b656e2049440000000000000000604482015260640161060a565b826001600160a01b03166111dc82611164565b6001600160a01b0316146112405760405162461bcd60e51b815260206004820152602560248201527f4552433732313a207472616e736665722066726f6d20696e636f72726563742060448201526437bbb732b960d91b606482015260840161060a565b6001600160a01b0382166112bb5760405162461bcd60e51b8152602060048201526024808201527f4552433732313a207472616e7366657220746f20746865207a65726f2061646460448201527f7265737300000000000000000000000000000000000000000000000000000000606482015260840161060a565b6112c88383836001611611565b826001600160a01b03166112db82611164565b6001600160a01b03161461133f5760405162461bcd60e51b815260206004820152602560248201527f4552433732313a207472616e736665722066726f6d20696e636f72726563742060448201526437bbb732b960d91b606482015260840161060a565b600081815260046020908152604080832080546001600160a01b03199081169091556001600160a01b0387811680865260038552838620805460001901905590871680865283862080546001019055868652600290945282852080549092168417909155905184937fddf252ad1be2c89b69c2b068fc378daa952ba7f163c4a11628f55a4df523b3ef91a4505050565b60006001600160a01b0384163b1561152757604051630a85bd0160e11b81526001600160a01b0385169063150b7a0290611413903390899088908890600401611bb8565b602060405180830381600087803b15801561142d57600080fd5b505af192505050801561145d575060408051601f3d908101601f1916820190925261145a91810190611bf4565b60015b61150d573d80801561148b576040519150601f19603f3d011682016040523d82523d6000602084013e611490565b606091505b5080516115055760405162461bcd60e51b815260206004820152603260248201527f4552433732313a207472616e7366657220746f206e6f6e20455243373231526560448201527f63656976657220696d706c656d656e7465720000000000000000000000000000606482015260840161060a565b805181602001fd5b6001600160e01b031916630a85bd0160e11b149050610cbc565b506001610cbc565b6000807a184f03e93ff9f4daa797ed6e38ed64bf6a1f0100000000000000008310611578577a184f03e93ff9f4daa797ed6e38ed64bf6a1f010000000000000000830492506040015b6d04ee2d6d415b85acef810000000083106115a4576d04ee2d6d415b85acef8100000000830492506020015b662386f26fc1000083106115c257662386f26fc10000830492506010015b6305f5e10083106115da576305f5e100830492506008015b61271083106115ee57612710830492506004015b60648310611600576064830492506002015b600a83106105045760010192915050565b6001811115610bce576001600160a01b03841615611657576001600160a01b03841660009081526003602052604081208054839290611651908490611c11565b90915550505b6001600160a01b03831615610bce576001600160a01b0383166000908152600360205260408120805483929061168e908490611b71565b909155505050505050565b8280546116a590611b05565b90600052602060002090601f0160209004810192826116c7576000855561170d565b82601f106116e057805160ff191683800117855561170d565b8280016001018555821561170d579182015b8281111561170d5782518255916020019190600101906116f2565b5061171992915061171d565b5090565b5b80821115611719576000815560010161171e565b6001600160e01b031981168114610b4357600080fd5b60006020828403121561175a57600080fd5b8135610d3181611732565b60005b83811015611780578181015183820152602001611768565b83811115610bce5750506000910152565b600081518084526117a9816020860160208601611765565b601f01601f19169290920160200192915050565b602081526000610d316020830184611791565b6000602082840312156117e257600080fd5b5035919050565b80356001600160a01b038116811461180057600080fd5b919050565b6000806040838503121561181857600080fd5b611821836117e9565b946020939093013593505050565b6000806040838503121561184257600080fd5b50508035926020909101359150565b634e487b7160e01b600052604160045260246000fd5b600067ffffffffffffffff8084111561188257611882611851565b604051601f8501601f19908116603f011681019082821181831017156118aa576118aa611851565b816040528093508581528686860111156118c357600080fd5b858560208301376000602087830101525050509392505050565b600082601f8301126118ee57600080fd5b610d3183833560208501611867565b6000806040838503121561191057600080fd5b82359150602083013567ffffffffffffffff81111561192e57600080fd5b61193a858286016118dd565b9150509250929050565b60008060006060848603121561195957600080fd5b611962846117e9565b9250611970602085016117e9565b9150604084013590509250925092565b60006020828403121561199257600080fd5b610d31826117e9565b8035801515811461180057600080fd5b600080604083850312156119be57600080fd5b6119c7836117e9565b91506119d56020840161199b565b90509250929050565b600080600080608085870312156119f457600080fd5b6119fd856117e9565b9350611a0b602086016117e9565b925060408501359150606085013567ffffffffffffffff811115611a2e57600080fd5b8501601f81018713611a3f57600080fd5b611a4e87823560208401611867565b91505092959194509250565b60008060008060808587031215611a7057600080fd5b611a79856117e9565b93506020850135925060408501359150606085013567ffffffffffffffff811115611aa357600080fd5b611a4e878288016118dd565b60008060408385031215611ac257600080fd5b611acb836117e9565b91506119d5602084016117e9565b600080600060608486031215611aee57600080fd5b611af7846117e9565b92506119706020850161199b565b600181811c90821680611b1957607f821691505b60208210811415611b3a57634e487b7160e01b600052602260045260246000fd5b50919050565b634e487b7160e01b600052601160045260246000fd5b6000600019821415611b6a57611b6a611b40565b5060010190565b60008219821115611b8457611b84611b40565b500190565b60008351611b9b818460208801611765565b835190830190611baf818360208801611765565b01949350505050565b60006001600160a01b03808716835280861660208401525083604083015260806060830152611bea6080830184611791565b9695505050505050565b600060208284031215611c0657600080fd5b8151610d3181611732565b600082821015611c2357611c23611b40565b50039056fea26469706673582212207aba49375fd404f2ce1a7a76acb8c3d53b2c40360078fb924979039f472a9bcd64736f6c63430008090033",
  "linkReferences": {},
  "deployedLinkReferences": {}
}