{
  "_format": "hh-sol-artifact-1",
  "contractName": "WarrantyNFT",
  "sourceName": "contracts/Warranty.sol",
  "abi": [
    {
      "inputs": [],
      "stateMutability": "nonpayable",
      "type": "constructor"
    },
    {
      "anonymous": false,
      "inputs": [
        {
          "indexed": true,
          "internalType": "address",
          "name": "owner",
          "type": "address"
        },
        {
          "indexed": true,
          "internalType": "address",
          "name": "approved",
          "type": "address"
        },
        {
          "indexed": true,
          "internalType": "uint256",
          "name": "tokenId",
          "type": "uint256"
        }
      ],
      "name": "Approval",
      "type": "event"
    },
    {
      "anonymous": false,
      "inputs": [
        {
          "indexed": true,
          "internalType": "address",
          "name": "owner",
          "type": "address"
        },
        {
          "indexed": true,
          "internalType": "address",
          "name": "operator",
          "type": "address"
        },
        {
          "indexed": false,
          "internalType": "bool",
          "name": "approved",
          "type": "bool"
        }
      ],
      "name": "ApprovalForAll",
      "type": "event"
    },
    {
      "anonymous": false,
      "inputs": [
        {
          "indexed": true,
          "internalType": "address",
          "name": "from",
          "type": "address"
        },
        {
          "indexed": true,
          "internalType": "address",
          "name": "to",
          "type": "address"
        },
        {
          "indexed": true,
          "internalType": "uint256",
          "name": "tokenId",
          "type": "uint256"
        }
      ],
      "name": "Transfer",
      "type": "event"
    },
    {
      "inputs": [
        {
          "internalType": "address",
          "name": "to",
          "type": "address"
        },
        {
          "internalType": "uint256",
          "name": "tokenId",
          "type": "uint256"
        }
      ],
      "name": "approve",
      "outputs": [],
      "stateMutability": "nonpayable",
      "type": "function"
    },
    {
      "inputs": [
        {
          "internalType": "address",
          "name": "owner",
          "type": "address"
        }
      ],
      "name": "balanceOf",
      "outputs": [
        {
          "internalType": "uint256",
          "name": "",
          "type": "uint256"
        }
      ],
      "stateMutability": "view",
      "type": "function"
    },
    {
      "inputs": [],
      "name": "companyCounter",
      "outputs": [
        {
          "internalType": "uint256",
          "name": "",
          "type": "uint256"
        }
      ],
      "stateMutability": "view",
      "type": "function"
    },
    {
      "inputs": [
        {
          "internalType": "uint256",
          "name": "",
          "type": "uint256"
        }
      ],
      "name": "companyName",
      "outputs": [
        {
          "internalType": "address",
          "name": "",
          "type": "address"
        }
      ],
      "stateMutability": "view",
      "type": "function"
    },
    {
      "inputs": [
        {
          "internalType": "uint256",
          "name": "_tokenId",
          "type": "uint256"
        },
        {
          "internalType": "uint256",
          "name": "_extension",
          "type": "uint256"
        },
        {
          "internalType": "address",
          "name": "_owner",
          "type": "address"
        }
      ],
      "name": "extendWarranty",
      "outputs": [
        {
          "internalType": "uint256",
          "name": "",
          "type": "uint256"
        }
      ],
      "stateMutability": "payable",
      "type": "function"
    },
    {
      "inputs": [
        {
          "internalType": "uint256",
          "name": "tokenId",
          "type": "uint256"
        }
      ],
      "name": "getApproved",
      "outputs": [
        {
          "internalType": "address",
          "name": "",
          "type": "address"
        }
      ],
      "stateMutability": "view",
      "type": "function"
    },
    {
      "inputs": [
        {
          "internalType": "address",
          "name": "owner",
          "type": "address"
        },
        {
          "internalType": "address",
          "name": "operator",
          "type": "address"
        }
      ],
      "name": "isApprovedForAll",
      "outputs": [
        {
          "internalType": "bool",
          "name": "",
          "type": "bool"
        }
      ],
      "stateMutability": "view",
      "type": "function"
    },
    {
      "inputs": [
        {
          "internalType": "uint256",
          "name": "_tokenId",
          "type": "uint256"
        }
      ],
      "name": "isExpired",
      "outputs": [
        {
          "internalType": "bool",
          "name": "",
          "type": "bool"
        }
      ],
      "stateMutability": "view",
      "type": "function"
    },
    {
      "inputs": [
        {
          "internalType": "address",
          "name": "_owner",
          "type": "address"
        },
        {
          "internalType": "uint256",
          "name": "_tokenId",
          "type": "uint256"
        }
      ],
      "name": "isOwner",
      "outputs": [
        {
          "internalType": "bool",
          "name": "",
          "type": "bool"
        }
      ],
      "stateMutability": "view",
      "type": "function"
    },
    {
      "inputs": [],
      "name": "itemCounter",
      "outputs": [
        {
          "internalType": "uint256",
          "name": "",
          "type": "uint256"
        }
      ],
      "stateMutability": "view",
      "type": "function"
    },
    {
      "inputs": [
        {
          "internalType": "uint256",
          "name": "",
          "type": "uint256"
        }
      ],
      "name": "itemStore",
      "outputs": [
        {
          "internalType": "uint256",
          "name": "itemId",
          "type": "uint256"
        },
        {
          "internalType": "uint256",
          "name": "expiry",
          "type": "uint256"
        },
        {
          "internalType": "address",
          "name": "manufacturer",
          "type": "address"
        }
      ],
      "stateMutability": "view",
      "type": "function"
    },
    {
      "inputs": [],
      "name": "name",
      "outputs": [
        {
          "internalType": "string",
          "name": "",
          "type": "string"
        }
      ],
      "stateMutability": "view",
      "type": "function"
    },
    {
      "inputs": [
        {
          "internalType": "uint256",
          "name": "tokenId",
          "type": "uint256"
        }
      ],
      "name": "ownerOf",
      "outputs": [
        {
          "internalType": "address",
          "name": "",
          "type": "address"
        }
      ],
      "stateMutability": "view",
      "type": "function"
    },
    {
      "inputs": [
        {
          "internalType": "uint256",
          "name": "_tokenId",
          "type": "uint256"
        },
        {
          "internalType": "address",
          "name": "_owner",
          "type": "address"
        }
      ],
      "name": "recordRepair",
      "outputs": [],
      "stateMutability": "nonpayable",
      "type": "function"
    },
    {
      "inputs": [
        {
          "internalType": "address",
          "name": "_owner",
          "type": "address"
        },
        {
          "internalType": "uint256",
          "name": "_itemId",
          "type": "uint256"
        },
        {
          "internalType": "string",
          "name": "_tokenURI",
          "type": "string"
        }
      ],
      "name": "redeemWarranty",
      "outputs": [
        {
          "internalType": "uint256",
          "name": "",
          "type": "uint256"
        }
      ],
      "stateMutability": "nonpayable",
      "type": "function"
    },
    {
      "inputs": [],
      "name": "registerCompany",
      "outputs": [
        {
          "internalType": "uint256",
          "name": "",
          "type": "uint256"
        }
      ],
      "stateMutability": "nonpayable",
      "type": "function"
    },
    {
      "inputs": [
        {
          "internalType": "uint256",
          "name": "_companyId",
          "type": "uint256"
        },
        {
          "internalType": "uint256",
          "name": "_expiry",
          "type": "uint256"
        }
      ],
      "name": "registerItem",
      "outputs": [
        {
          "internalType": "uint256",
          "name": "",
          "type": "uint256"
        }
      ],
      "stateMutability": "nonpayable",
      "type": "function"
    },
    {
      "inputs": [
        {
          "internalType": "uint256",
          "name": "_tokenId",
          "type": "uint256"
        }
      ],
      "name": "returnItemIdByTokenId",
      "outputs": [
        {
          "internalType": "uint256",
          "name": "",
          "type": "uint256"
        }
      ],
      "stateMutability": "view",
      "type": "function"
    },
    {
      "inputs": [],
      "name": "returnLatestCompanyId",
      "outputs": [
        {
          "internalType": "uint256",
          "name": "",
          "type": "uint256"
        }
      ],
      "stateMutability": "view",
      "type": "function"
    },
    {
      "inputs": [],
      "name": "returnLatestItemId",
      "outputs": [
        {
          "internalType": "uint256",
          "name": "",
          "type": "uint256"
        }
      ],
      "stateMutability": "view",
      "type": "function"
    },
    {
      "inputs": [],
      "name": "returnLatestTokenId",
      "outputs": [
        {
          "internalType": "uint256",
          "name": "",
          "type": "uint256"
        }
      ],
      "stateMutability": "view",
      "type": "function"
    },
    {
      "inputs": [
        {
          "internalType": "uint256",
          "name": "_tokenId",
          "type": "uint256"
        }
      ],
      "name": "returnTrackRecord",
      "outputs": [
        {
          "internalType": "uint256[]",
          "name": "",
          "type": "uint256[]"
        }
      ],
      "stateMutability": "view",
      "type": "function"
    },
    {
      "inputs": [
        {
          "internalType": "address",
          "name": "from",
          "type": "address"
        },
        {
          "internalType": "address",
          "name": "to",
          "type": "address"
        },
        {
          "internalType": "uint256",
          "name": "tokenId",
          "type": "uint256"
        }
      ],
      "name": "safeTransferFrom",
      "outputs": [],
      "stateMutability": "nonpayable",
      "type": "function"
    },
    {
      "inputs": [
        {
          "internalType": "address",
          "name": "from",
          "type": "address"
        },
        {
          "internalType": "address",
          "name": "to",
          "type": "address"
        },
        {
          "internalType": "uint256",
          "name": "tokenId",
          "type": "uint256"
        },
        {
          "internalType": "bytes",
          "name": "data",
          "type": "bytes"
        }
      ],
      "name": "safeTransferFrom",
      "outputs": [],
      "stateMutability": "nonpayable",
      "type": "function"
    },
    {
      "inputs": [
        {
          "internalType": "address",
          "name": "_from",
          "type": "address"
        },
        {
          "internalType": "address",
          "name": "_to",
          "type": "address"
        },
        {
          "internalType": "uint256",
          "name": "_tokenId",
          "type": "uint256"
        }
      ],
      "name": "sellProduct",
      "outputs": [],
      "stateMutability": "nonpayable",
      "type": "function"
    },
    {
      "inputs": [
        {
          "internalType": "address",
          "name": "operator",
          "type": "address"
        },
        {
          "internalType": "bool",
          "name": "approved",
          "type": "bool"
        }
      ],
      "name": "setApprovalForAll",
      "outputs": [],
      "stateMutability": "nonpayable",
      "type": "function"
    },
    {
      "inputs": [
        {
          "internalType": "bytes4",
          "name": "interfaceId",
          "type": "bytes4"
        }
      ],
      "name": "supportsInterface",
      "outputs": [
        {
          "internalType": "bool",
          "name": "",
          "type": "bool"
        }
      ],
      "stateMutability": "view",
      "type": "function"
    },
    {
      "inputs": [],
      "name": "symbol",
      "outputs": [
        {
          "internalType": "string",
          "name": "",
          "type": "string"
        }
      ],
      "stateMutability": "view",
      "type": "function"
    },
    {
      "inputs": [
        {
          "internalType": "uint256",
          "name": "_tokenId",
          "type": "uint256"
        }
      ],
      "name": "timeToExpire",
      "outputs": [
        {
          "internalType": "uint256",
          "name": "",
          "type": "uint256"
        }
      ],
      "stateMutability": "view",
      "type": "function"
    },
    {
      "inputs": [],
      "name": "tokenCounter",
      "outputs": [
        {
          "internalType": "uint256",
          "name": "",
          "type": "uint256"
        }
      ],
      "stateMutability": "view",
      "type": "function"
    },
    {
      "inputs": [
        {
          "internalType": "uint256",
          "name": "tokenId",
          "type": "uint256"
        }
      ],
      "name": "tokenURI",
      "outputs": [
        {
          "internalType": "string",
          "name": "",
          "type": "string"
        }
      ],
      "stateMutability": "view",
      "type": "function"
    },
    {
      "inputs": [
        {
          "internalType": "uint256",
          "name": "",
          "type": "uint256"
        },
        {
          "internalType": "uint256",
          "name": "",
          "type": "uint256"
        }
      ],
      "name": "trackBuyer",
      "outputs": [
        {
          "internalType": "uint256",
          "name": "itemId",
          "type": "uint256"
        },
        {
          "internalType": "address",
          "name": "owner",
          "type": "address"
        },
        {
          "internalType": "uint256",
          "name": "dateOfExpiry",
          "type": "uint256"
        }
      ],
      "stateMutability": "view",
      "type": "function"
    },
    {
      "inputs": [
        {
          "internalType": "uint256",
          "name": "",
          "type": "uint256"
        },
        {
          "internalType": "uint256",
          "name": "",
          "type": "uint256"
        }
      ],
      "name": "trackRepair",
      "outputs": [
        {
          "internalType": "uint256",
          "name": "",
          "type": "uint256"
        }
      ],
      "stateMutability": "view",
      "type": "function"
    },
    {
      "inputs": [
        {
          "internalType": "address",
          "name": "from",
          "type": "address"
        },
        {
          "internalType": "address",
          "name": "to",
          "type": "address"
        },
        {
          "internalType": "uint256",
          "name": "tokenId",
          "type": "uint256"
        }
      ],
      "name": "transferFrom",
      "outputs": [],
      "stateMutability": "nonpayable",
      "type": "function"
    }
  ],
  "bytecode": "0x60806040526000600755600060085560006009553480156200002057600080fd5b50604080518082018252600881526757617272616e747960c01b6020808301918252835180850190945260048452635752545960e01b9084015281519192916200006d916000916200008c565b508051620000839060019060208401906200008c565b5050506200016f565b8280546200009a9062000132565b90600052602060002090601f016020900481019282620000be576000855562000109565b82601f10620000d957805160ff191683800117855562000109565b8280016001018555821562000109579182015b8281111562000109578251825591602001919060010190620000ec565b50620001179291506200011b565b5090565b5b808211156200011757600081556001016200011c565b600181811c908216806200014757607f821691505b602082108114156200016957634e487b7160e01b600052602260045260246000fd5b50919050565b612815806200017f6000396000f3fe6080604052600436106102195760003560e01c80634ededc641161011d57806395d89b41116100b0578063d082e3811161007f578063e03b579311610064578063e03b579314610621578063e327a6af1461068a578063e985e9c5146106aa57600080fd5b8063d082e381146105eb578063d9548e531461060157600080fd5b806395d89b4114610576578063a22cb4651461058b578063b88d4fde146105ab578063c87b56dd146105cb57600080fd5b806370a08231116100ec57806370a08231146104de5780637cad1107146104fe5780638114298c146105135780638273aef01461055657600080fd5b80634ededc641461047d5780636352211e1461049357806365f6d798146104b35780636d6d00ed146104c857600080fd5b80631121de94116101b057806323b872dd1161017f57806342842e0e1161016457806342842e0e1461042a5780634bc601f31461044a5780634d2846991461045d57600080fd5b806323b872dd146103f5578063274e92901461041557600080fd5b80631121de94146103685780631e1ac4e01461038857806322cfb05e146103a857806323666a05146103c857600080fd5b8063081812fc116101ec578063081812fc146102f1578063095ea7b3146103115780630d92be9e146103335780630ef44f2b1461034857600080fd5b806301ffc9a71461021e578063050feeb014610253578063055749e4146102a157806306fdde03146102cf575b600080fd5b34801561022a57600080fd5b5061023e6102393660046122c1565b6106f3565b60405190151581526020015b60405180910390f35b34801561025f57600080fd5b5061028961026e3660046122de565b600a602052600090815260409020546001600160a01b031681565b6040516001600160a01b03909116815260200161024a565b3480156102ad57600080fd5b506102c16102bc3660046122f7565b610790565b60405190815260200161024a565b3480156102db57600080fd5b506102e461082e565b60405161024a9190612371565b3480156102fd57600080fd5b5061028961030c3660046122de565b6108c0565b34801561031d57600080fd5b5061033161032c3660046123a0565b6108e7565b005b34801561033f57600080fd5b506009546102c1565b34801561035457600080fd5b506102c1610363366004612456565b610a1e565b34801561037457600080fd5b506102c16103833660046122de565b610b73565b34801561039457600080fd5b506102c16103a33660046122f7565b610bb8565b3480156103b457600080fd5b506103316103c33660046124c1565b610be9565b3480156103d457600080fd5b506103e86103e33660046122de565b610cd3565b60405161024a91906124ed565b34801561040157600080fd5b50610331610410366004612531565b610d35565b34801561042157600080fd5b506008546102c1565b34801561043657600080fd5b50610331610445366004612531565b610dac565b6102c161045836600461256d565b610dc7565b34801561046957600080fd5b506102c16104783660046122de565b61100d565b34801561048957600080fd5b506102c160075481565b34801561049f57600080fd5b506102896104ae3660046122de565b6110dc565b3480156104bf57600080fd5b506007546102c1565b3480156104d457600080fd5b506102c160095481565b3480156104ea57600080fd5b506102c16104f93660046125a2565b611141565b34801561050a57600080fd5b506102c16111db565b34801561051f57600080fd5b5061053361052e3660046122f7565b61121d565b604080519384526001600160a01b0390921660208401529082015260600161024a565b34801561056257600080fd5b50610331610571366004612531565b611269565b34801561058257600080fd5b506102e4611413565b34801561059757600080fd5b506103316105a63660046125bd565b611422565b3480156105b757600080fd5b506103316105c63660046125f9565b611431565b3480156105d757600080fd5b506102e46105e63660046122de565b6114af565b3480156105f757600080fd5b506102c160085481565b34801561060d57600080fd5b5061023e61061c3660046122de565b6115b8565b34801561062d57600080fd5b5061066661063c3660046122de565b600b602052600090815260409020805460018201546002909201549091906001600160a01b031683565b6040805193845260208401929092526001600160a01b03169082015260600161024a565b34801561069657600080fd5b5061023e6106a53660046123a0565b611670565b3480156106b657600080fd5b5061023e6106c5366004612675565b6001600160a01b03918216600090815260056020908152604080832093909416825291909152205460ff1690565b60006001600160e01b031982167f80ac58cd00000000000000000000000000000000000000000000000000000000148061075657506001600160e01b031982167f5b5e139f00000000000000000000000000000000000000000000000000000000145b8061078a57507f01ffc9a7000000000000000000000000000000000000000000000000000000006001600160e01b03198316145b92915050565b6000828152600a60205260408120546001600160a01b031633146107b357600080fd5b6001600960008282546107c691906126b5565b909155505060408051606081018252600980548083526020808401968752338486019081526000928352600b90915293902091518255935160018201559051600290910180546001600160a01b0319166001600160a01b039092169190911790555054919050565b60606000805461083d906126cd565b80601f0160208091040260200160405190810160405280929190818152602001828054610869906126cd565b80156108b65780601f1061088b576101008083540402835291602001916108b6565b820191906000526020600020905b81548152906001019060200180831161089957829003601f168201915b5050505050905090565b60006108cb826116b2565b506000908152600460205260409020546001600160a01b031690565b60006108f2826110dc565b9050806001600160a01b0316836001600160a01b031614156109815760405162461bcd60e51b815260206004820152602160248201527f4552433732313a20617070726f76616c20746f2063757272656e74206f776e6560448201527f720000000000000000000000000000000000000000000000000000000000000060648201526084015b60405180910390fd5b336001600160a01b038216148061099d575061099d81336106c5565b610a0f5760405162461bcd60e51b815260206004820152603d60248201527f4552433732313a20617070726f76652063616c6c6572206973206e6f7420746f60448201527f6b656e206f776e6572206f7220617070726f76656420666f7220616c6c0000006064820152608401610978565b610a198383611719565b505050565b6000600160086000828254610a3391906126b5565b90915550506008546000908152600260205260409020546001600160a01b031615610aa05760405162461bcd60e51b815260206004820152601360248201527f4974656d20616c726561647920657869737421000000000000000000000000006044820152606401610978565b610aac84600854611787565b610ab8600854836117a1565b600c600060085481526020019081526020016000206040518060600160405280858152602001866001600160a01b031681526020016201518042610afc9190612708565b6000878152600b6020526040902060010154610b1891906126b5565b9052815460018082018455600093845260209384902083516003909302019182559282015192810180546001600160a01b0319166001600160a01b039094169390931790925560400151600290910155505060085492915050565b6000818152600c602052604081208054610b8f9060019061272a565b81548110610b9f57610b9f612741565b9060005260206000209060030201600001549050919050565b600d6020528160005260406000208181548110610bd457600080fd5b90600052602060002001600091509150505481565b610bf2826115b8565b15610c3f5760405162461bcd60e51b815260206004820152601560248201527f57617272616e74792068617320657870697265642100000000000000000000006044820152606401610978565b6000828152600c6020526040902080546001600160a01b0383169190610c679060019061272a565b81548110610c7757610c77612741565b60009182526020909120600160039092020101546001600160a01b031614610c9e57600080fd5b6000828152600d60205260409020610cb96201518042612708565b815460018101835560009283526020909220909101555050565b6000818152600d6020908152604091829020805483518184028101840190945280845260609392830182828015610d2957602002820191906000526020600020905b815481526020019060010190808311610d15575b50505050509050919050565b610d3f338261184a565b610da15760405162461bcd60e51b815260206004820152602d60248201527f4552433732313a2063616c6c6572206973206e6f7420746f6b656e206f776e6560448201526c1c881bdc88185c1c1c9bdd9959609a1b6064820152608401610978565b610a198383836118c8565b610a1983838360405180602001604052806000815250611431565b6000838152600260205260408120546001600160a01b0316610e2b5760405162461bcd60e51b815260206004820152601560248201527f546f6b656e20646f6573206e6f742065786973742100000000000000000000006044820152606401610978565b610e34846115b8565b15610e815760405162461bcd60e51b815260206004820152601a60248201527f546f6b656e2068617320616c72656164792065787069726564210000000000006044820152606401610978565b610e8b8285611670565b610efd5760405162461bcd60e51b815260206004820152603260248201527f546865206164647265737320646f6573206e6f742062656c6f6e6720746f206f60448201527f776e6572206f662074686520746f6b656e2100000000000000000000000000006064820152608401610978565b6000848152600c602052604090819020815160608101909252805490919081908390610f2b9060019061272a565b81548110610f3b57610f3b612741565b6000918252602080832060039092029091015483526001600160a01b03871683820152888252600c9052604090819020805491909201918791610f809060019061272a565b81548110610f9057610f90612741565b906000526020600020906003020160020154610fac91906126b5565b9052815460018082018455600093845260209384902083516003909302019182559282015192810180546001600160a01b0319166001600160a01b0390941693909317909255604001516002909101556110058461100d565b949350505050565b6000818152600260205260408120546001600160a01b03166110715760405162461bcd60e51b815260206004820152601560248201527f546f6b656e20646f6573206e6f742065786973742100000000000000000000006044820152606401610978565b61107a826115b8565b1561108757506000919050565b6110946201518042612708565b6000838152600c6020526040902080546110b09060019061272a565b815481106110c0576110c0612741565b90600052602060002090600302016002015461078a919061272a565b6000818152600260205260408120546001600160a01b03168061078a5760405162461bcd60e51b815260206004820152601860248201527f4552433732313a20696e76616c696420746f6b656e20494400000000000000006044820152606401610978565b60006001600160a01b0382166111bf5760405162461bcd60e51b815260206004820152602960248201527f4552433732313a2061646472657373207a65726f206973206e6f74206120766160448201527f6c6964206f776e657200000000000000000000000000000000000000000000006064820152608401610978565b506001600160a01b031660009081526003602052604090205490565b60006001600760008282546111f091906126b5565b9091555050600780546000908152600a6020526040902080546001600160a01b0319163317905554919050565b600c602052816000526040600020818154811061123957600080fd5b60009182526020909120600390910201805460018201546002909201549093506001600160a01b03909116915083565b6000818152600c6020526040902080546001600160a01b03851691906112919060019061272a565b815481106112a1576112a1612741565b60009182526020909120600160039092020101546001600160a01b0316146112c857600080fd5b6000818152600260205260409020546001600160a01b03166112e957600080fd5b6000818152600260205260409020546001600160a01b0384811691161461130f57600080fd5b61131a838383610dac565b6000818152600c6020526040908190208151606081019092528054909190819083906113489060019061272a565b8154811061135857611358612741565b6000918252602080832060039092029091015483526001600160a01b03871683820152858252600c9052604090819020805491909201919061139c9060019061272a565b815481106113ac576113ac612741565b600091825260208083206003928302016002908101549094528554600180820188559684529281902085519390920290910191825583015193810180546001600160a01b0319166001600160a01b0390951694909417909355604090910151910155505050565b60606001805461083d906126cd565b61142d338383611ace565b5050565b61143b338361184a565b61149d5760405162461bcd60e51b815260206004820152602d60248201527f4552433732313a2063616c6c6572206973206e6f7420746f6b656e206f776e6560448201526c1c881bdc88185c1c1c9bdd9959609a1b6064820152608401610978565b6114a984848484611b9d565b50505050565b60606114ba826116b2565b600082815260066020526040812080546114d3906126cd565b80601f01602080910402602001604051908101604052809291908181526020018280546114ff906126cd565b801561154c5780601f106115215761010080835404028352916020019161154c565b820191906000526020600020905b81548152906001019060200180831161152f57829003601f168201915b50505050509050600061156a60408051602081019091526000815290565b905080516000141561157d575092915050565b8151156115af578082604051602001611597929190612757565b60405160208183030381529060405292505050919050565b61100584611c1b565b6000818152600260205260408120546001600160a01b031661161c5760405162461bcd60e51b815260206004820152601860248201527f57617272616e747920646f6573206e6f742065786973742100000000000000006044820152606401610978565b6116296201518042612708565b6000838152600c6020526040902080546116459060019061272a565b8154811061165557611655612741565b90600052602060002090600302016002015411159050919050565b6000818152600260205260408120546001600160a01b031661169157600080fd5b506000908152600260205260409020546001600160a01b0390811691161490565b6000818152600260205260409020546001600160a01b03166117165760405162461bcd60e51b815260206004820152601860248201527f4552433732313a20696e76616c696420746f6b656e20494400000000000000006044820152606401610978565b50565b600081815260046020526040902080546001600160a01b0319166001600160a01b038416908117909155819061174e826110dc565b6001600160a01b03167f8c5be1e5ebec7d5bd14f71427d1e84f3dd0314c0f7b2291e5b200ac8c7c3b92560405160405180910390a45050565b61142d828260405180602001604052806000815250611c8f565b6000828152600260205260409020546001600160a01b031661182b5760405162461bcd60e51b815260206004820152602e60248201527f45524337323155524953746f726167653a2055524920736574206f66206e6f6e60448201527f6578697374656e7420746f6b656e0000000000000000000000000000000000006064820152608401610978565b60008281526006602090815260409091208251610a1992840190612212565b600080611856836110dc565b9050806001600160a01b0316846001600160a01b0316148061189d57506001600160a01b0380821660009081526005602090815260408083209388168352929052205460ff165b806110055750836001600160a01b03166118b6846108c0565b6001600160a01b031614949350505050565b826001600160a01b03166118db826110dc565b6001600160a01b03161461193f5760405162461bcd60e51b815260206004820152602560248201527f4552433732313a207472616e736665722066726f6d20696e636f72726563742060448201526437bbb732b960d91b6064820152608401610978565b6001600160a01b0382166119ba5760405162461bcd60e51b8152602060048201526024808201527f4552433732313a207472616e7366657220746f20746865207a65726f2061646460448201527f72657373000000000000000000000000000000000000000000000000000000006064820152608401610978565b6119c78383836001611d0d565b826001600160a01b03166119da826110dc565b6001600160a01b031614611a3e5760405162461bcd60e51b815260206004820152602560248201527f4552433732313a207472616e736665722066726f6d20696e636f72726563742060448201526437bbb732b960d91b6064820152608401610978565b600081815260046020908152604080832080546001600160a01b03199081169091556001600160a01b0387811680865260038552838620805460001901905590871680865283862080546001019055868652600290945282852080549092168417909155905184937fddf252ad1be2c89b69c2b068fc378daa952ba7f163c4a11628f55a4df523b3ef91a4505050565b816001600160a01b0316836001600160a01b03161415611b305760405162461bcd60e51b815260206004820152601960248201527f4552433732313a20617070726f766520746f2063616c6c6572000000000000006044820152606401610978565b6001600160a01b03838116600081815260056020908152604080832094871680845294825291829020805460ff191686151590811790915591519182527f17307eab39ab6107e8899845ad3d59bd9653f200f220920489ca2b5937696c31910160405180910390a3505050565b611ba88484846118c8565b611bb484848484611d95565b6114a95760405162461bcd60e51b815260206004820152603260248201527f4552433732313a207472616e7366657220746f206e6f6e20455243373231526560448201527131b2b4bb32b91034b6b83632b6b2b73a32b960711b6064820152608401610978565b6060611c26826116b2565b6000611c3d60408051602081019091526000815290565b90506000815111611c5d5760405180602001604052806000815250611c88565b80611c6784611eed565b604051602001611c78929190612757565b6040516020818303038152906040525b9392505050565b611c998383611f97565b611ca66000848484611d95565b610a195760405162461bcd60e51b815260206004820152603260248201527f4552433732313a207472616e7366657220746f206e6f6e20455243373231526560448201527131b2b4bb32b91034b6b83632b6b2b73a32b960711b6064820152608401610978565b60018111156114a9576001600160a01b03841615611d53576001600160a01b03841660009081526003602052604081208054839290611d4d90849061272a565b90915550505b6001600160a01b038316156114a9576001600160a01b03831660009081526003602052604081208054839290611d8a9084906126b5565b909155505050505050565b60006001600160a01b0384163b15611ee257604051630a85bd0160e11b81526001600160a01b0385169063150b7a0290611dd9903390899088908890600401612786565b602060405180830381600087803b158015611df357600080fd5b505af1925050508015611e23575060408051601f3d908101601f19168201909252611e20918101906127c2565b60015b611ec8573d808015611e51576040519150601f19603f3d011682016040523d82523d6000602084013e611e56565b606091505b508051611ec05760405162461bcd60e51b815260206004820152603260248201527f4552433732313a207472616e7366657220746f206e6f6e20455243373231526560448201527131b2b4bb32b91034b6b83632b6b2b73a32b960711b6064820152608401610978565b805181602001fd5b6001600160e01b031916630a85bd0160e11b149050611005565b506001949350505050565b60606000611efa83612130565b600101905060008167ffffffffffffffff811115611f1a57611f1a6123ca565b6040519080825280601f01601f191660200182016040528015611f44576020820181803683370190505b5090508181016020015b600019017f3031323334353637383961626364656600000000000000000000000000000000600a86061a8153600a8504945084611f8a57611f8f565b611f4e565b509392505050565b6001600160a01b038216611fed5760405162461bcd60e51b815260206004820181905260248201527f4552433732313a206d696e7420746f20746865207a65726f20616464726573736044820152606401610978565b6000818152600260205260409020546001600160a01b0316156120525760405162461bcd60e51b815260206004820152601c60248201527f4552433732313a20746f6b656e20616c7265616479206d696e746564000000006044820152606401610978565b612060600083836001611d0d565b6000818152600260205260409020546001600160a01b0316156120c55760405162461bcd60e51b815260206004820152601c60248201527f4552433732313a20746f6b656e20616c7265616479206d696e746564000000006044820152606401610978565b6001600160a01b038216600081815260036020908152604080832080546001019055848352600290915280822080546001600160a01b0319168417905551839291907fddf252ad1be2c89b69c2b068fc378daa952ba7f163c4a11628f55a4df523b3ef908290a45050565b6000807a184f03e93ff9f4daa797ed6e38ed64bf6a1f0100000000000000008310612179577a184f03e93ff9f4daa797ed6e38ed64bf6a1f010000000000000000830492506040015b6d04ee2d6d415b85acef810000000083106121a5576d04ee2d6d415b85acef8100000000830492506020015b662386f26fc1000083106121c357662386f26fc10000830492506010015b6305f5e10083106121db576305f5e100830492506008015b61271083106121ef57612710830492506004015b60648310612201576064830492506002015b600a831061078a5760010192915050565b82805461221e906126cd565b90600052602060002090601f0160209004810192826122405760008555612286565b82601f1061225957805160ff1916838001178555612286565b82800160010185558215612286579182015b8281111561228657825182559160200191906001019061226b565b50612292929150612296565b5090565b5b808211156122925760008155600101612297565b6001600160e01b03198116811461171657600080fd5b6000602082840312156122d357600080fd5b8135611c88816122ab565b6000602082840312156122f057600080fd5b5035919050565b6000806040838503121561230a57600080fd5b50508035926020909101359150565b60005b8381101561233457818101518382015260200161231c565b838111156114a95750506000910152565b6000815180845261235d816020860160208601612319565b601f01601f19169290920160200192915050565b602081526000611c886020830184612345565b80356001600160a01b038116811461239b57600080fd5b919050565b600080604083850312156123b357600080fd5b6123bc83612384565b946020939093013593505050565b634e487b7160e01b600052604160045260246000fd5b600067ffffffffffffffff808411156123fb576123fb6123ca565b604051601f8501601f19908116603f01168101908282118183101715612423576124236123ca565b8160405280935085815286868601111561243c57600080fd5b858560208301376000602087830101525050509392505050565b60008060006060848603121561246b57600080fd5b61247484612384565b925060208401359150604084013567ffffffffffffffff81111561249757600080fd5b8401601f810186136124a857600080fd5b6124b7868235602084016123e0565b9150509250925092565b600080604083850312156124d457600080fd5b823591506124e460208401612384565b90509250929050565b6020808252825182820181905260009190848201906040850190845b8181101561252557835183529284019291840191600101612509565b50909695505050505050565b60008060006060848603121561254657600080fd5b61254f84612384565b925061255d60208501612384565b9150604084013590509250925092565b60008060006060848603121561258257600080fd5b833592506020840135915061259960408501612384565b90509250925092565b6000602082840312156125b457600080fd5b611c8882612384565b600080604083850312156125d057600080fd5b6125d983612384565b9150602083013580151581146125ee57600080fd5b809150509250929050565b6000806000806080858703121561260f57600080fd5b61261885612384565b935061262660208601612384565b925060408501359150606085013567ffffffffffffffff81111561264957600080fd5b8501601f8101871361265a57600080fd5b612669878235602084016123e0565b91505092959194509250565b6000806040838503121561268857600080fd5b61269183612384565b91506124e460208401612384565b634e487b7160e01b600052601160045260246000fd5b600082198211156126c8576126c861269f565b500190565b600181811c908216806126e157607f821691505b6020821081141561270257634e487b7160e01b600052602260045260246000fd5b50919050565b60008261272557634e487b7160e01b600052601260045260246000fd5b500490565b60008282101561273c5761273c61269f565b500390565b634e487b7160e01b600052603260045260246000fd5b60008351612769818460208801612319565b83519083019061277d818360208801612319565b01949350505050565b60006001600160a01b038087168352808616602084015250836040830152608060608301526127b86080830184612345565b9695505050505050565b6000602082840312156127d457600080fd5b8151611c88816122ab56fea26469706673582212204f78ffe4bf7c9a4e3fd6dbfa06ca203102486a24710a60a685dcbfdf4cef6b3164736f6c63430008090033",
  "linkReferences": {},
  "deployedLinkReferences": {}
}