{
  "_format": "hh-sol-artifact-1",
  "contractName": "WarrantyNFT",
  "sourceName": "contracts/Warranty.sol",
  "abi": [
    {
      "inputs": [],
      "stateMutability": "nonpayable",
      "type": "constructor"
    },
    {
      "anonymous": false,
      "inputs": [
        {
          "indexed": true,
          "internalType": "address",
          "name": "owner",
          "type": "address"
        },
        {
          "indexed": true,
          "internalType": "address",
          "name": "approved",
          "type": "address"
        },
        {
          "indexed": true,
          "internalType": "uint256",
          "name": "tokenId",
          "type": "uint256"
        }
      ],
      "name": "Approval",
      "type": "event"
    },
    {
      "anonymous": false,
      "inputs": [
        {
          "indexed": true,
          "internalType": "address",
          "name": "owner",
          "type": "address"
        },
        {
          "indexed": true,
          "internalType": "address",
          "name": "operator",
          "type": "address"
        },
        {
          "indexed": false,
          "internalType": "bool",
          "name": "approved",
          "type": "bool"
        }
      ],
      "name": "ApprovalForAll",
      "type": "event"
    },
    {
      "anonymous": false,
      "inputs": [
        {
          "indexed": true,
          "internalType": "address",
          "name": "from",
          "type": "address"
        },
        {
          "indexed": true,
          "internalType": "address",
          "name": "to",
          "type": "address"
        },
        {
          "indexed": true,
          "internalType": "uint256",
          "name": "tokenId",
          "type": "uint256"
        }
      ],
      "name": "Transfer",
      "type": "event"
    },
    {
      "inputs": [
        {
          "internalType": "address",
          "name": "to",
          "type": "address"
        },
        {
          "internalType": "uint256",
          "name": "tokenId",
          "type": "uint256"
        }
      ],
      "name": "approve",
      "outputs": [],
      "stateMutability": "nonpayable",
      "type": "function"
    },
    {
      "inputs": [
        {
          "internalType": "address",
          "name": "owner",
          "type": "address"
        }
      ],
      "name": "balanceOf",
      "outputs": [
        {
          "internalType": "uint256",
          "name": "",
          "type": "uint256"
        }
      ],
      "stateMutability": "view",
      "type": "function"
    },
    {
      "inputs": [],
      "name": "companyCounter",
      "outputs": [
        {
          "internalType": "uint256",
          "name": "",
          "type": "uint256"
        }
      ],
      "stateMutability": "view",
      "type": "function"
    },
    {
      "inputs": [
        {
          "internalType": "uint256",
          "name": "",
          "type": "uint256"
        }
      ],
      "name": "companyName",
      "outputs": [
        {
          "internalType": "address",
          "name": "",
          "type": "address"
        }
      ],
      "stateMutability": "view",
      "type": "function"
    },
    {
      "inputs": [
        {
          "internalType": "uint256",
          "name": "_companyId",
          "type": "uint256"
        },
        {
          "internalType": "uint256",
          "name": "_tokenId",
          "type": "uint256"
        },
        {
          "internalType": "uint256",
          "name": "_extension",
          "type": "uint256"
        },
        {
          "internalType": "address",
          "name": "_owner",
          "type": "address"
        }
      ],
      "name": "extendWarranty",
      "outputs": [
        {
          "internalType": "uint256",
          "name": "",
          "type": "uint256"
        }
      ],
      "stateMutability": "nonpayable",
      "type": "function"
    },
    {
      "inputs": [
        {
          "internalType": "uint256",
          "name": "tokenId",
          "type": "uint256"
        }
      ],
      "name": "getApproved",
      "outputs": [
        {
          "internalType": "address",
          "name": "",
          "type": "address"
        }
      ],
      "stateMutability": "view",
      "type": "function"
    },
    {
      "inputs": [
        {
          "internalType": "address",
          "name": "owner",
          "type": "address"
        },
        {
          "internalType": "address",
          "name": "operator",
          "type": "address"
        }
      ],
      "name": "isApprovedForAll",
      "outputs": [
        {
          "internalType": "bool",
          "name": "",
          "type": "bool"
        }
      ],
      "stateMutability": "view",
      "type": "function"
    },
    {
      "inputs": [
        {
          "internalType": "uint256",
          "name": "_tokenId",
          "type": "uint256"
        }
      ],
      "name": "isExpired",
      "outputs": [
        {
          "internalType": "bool",
          "name": "",
          "type": "bool"
        }
      ],
      "stateMutability": "view",
      "type": "function"
    },
    {
      "inputs": [
        {
          "internalType": "address",
          "name": "_owner",
          "type": "address"
        },
        {
          "internalType": "uint256",
          "name": "_tokenId",
          "type": "uint256"
        }
      ],
      "name": "isOwner",
      "outputs": [
        {
          "internalType": "bool",
          "name": "",
          "type": "bool"
        }
      ],
      "stateMutability": "view",
      "type": "function"
    },
    {
      "inputs": [],
      "name": "itemCounter",
      "outputs": [
        {
          "internalType": "uint256",
          "name": "",
          "type": "uint256"
        }
      ],
      "stateMutability": "view",
      "type": "function"
    },
    {
      "inputs": [
        {
          "internalType": "uint256",
          "name": "",
          "type": "uint256"
        }
      ],
      "name": "itemStore",
      "outputs": [
        {
          "internalType": "uint256",
          "name": "itemId",
          "type": "uint256"
        },
        {
          "internalType": "uint256",
          "name": "expiry",
          "type": "uint256"
        },
        {
          "internalType": "address",
          "name": "manufacturer",
          "type": "address"
        }
      ],
      "stateMutability": "view",
      "type": "function"
    },
    {
      "inputs": [],
      "name": "name",
      "outputs": [
        {
          "internalType": "string",
          "name": "",
          "type": "string"
        }
      ],
      "stateMutability": "view",
      "type": "function"
    },
    {
      "inputs": [
        {
          "internalType": "uint256",
          "name": "tokenId",
          "type": "uint256"
        }
      ],
      "name": "ownerOf",
      "outputs": [
        {
          "internalType": "address",
          "name": "",
          "type": "address"
        }
      ],
      "stateMutability": "view",
      "type": "function"
    },
    {
      "inputs": [
        {
          "internalType": "uint256",
          "name": "_tokenId",
          "type": "uint256"
        },
        {
          "internalType": "address",
          "name": "_owner",
          "type": "address"
        }
      ],
      "name": "recordRepair",
      "outputs": [],
      "stateMutability": "nonpayable",
      "type": "function"
    },
    {
      "inputs": [
        {
          "internalType": "address",
          "name": "_owner",
          "type": "address"
        },
        {
          "internalType": "uint256",
          "name": "_itemId",
          "type": "uint256"
        },
        {
          "internalType": "string",
          "name": "_tokenURI",
          "type": "string"
        }
      ],
      "name": "redeemWarranty",
      "outputs": [
        {
          "internalType": "uint256",
          "name": "",
          "type": "uint256"
        }
      ],
      "stateMutability": "nonpayable",
      "type": "function"
    },
    {
      "inputs": [],
      "name": "registerCompany",
      "outputs": [
        {
          "internalType": "uint256",
          "name": "",
          "type": "uint256"
        }
      ],
      "stateMutability": "nonpayable",
      "type": "function"
    },
    {
      "inputs": [
        {
          "internalType": "uint256",
          "name": "_companyId",
          "type": "uint256"
        },
        {
          "internalType": "uint256",
          "name": "_expiry",
          "type": "uint256"
        }
      ],
      "name": "registerItem",
      "outputs": [
        {
          "internalType": "uint256",
          "name": "",
          "type": "uint256"
        }
      ],
      "stateMutability": "nonpayable",
      "type": "function"
    },
    {
      "inputs": [],
      "name": "returnLatestCompanyId",
      "outputs": [
        {
          "internalType": "uint256",
          "name": "",
          "type": "uint256"
        }
      ],
      "stateMutability": "view",
      "type": "function"
    },
    {
      "inputs": [],
      "name": "returnLatestItemId",
      "outputs": [
        {
          "internalType": "uint256",
          "name": "",
          "type": "uint256"
        }
      ],
      "stateMutability": "view",
      "type": "function"
    },
    {
      "inputs": [],
      "name": "returnLatestTokenId",
      "outputs": [
        {
          "internalType": "uint256",
          "name": "",
          "type": "uint256"
        }
      ],
      "stateMutability": "view",
      "type": "function"
    },
    {
      "inputs": [
        {
          "internalType": "address",
          "name": "from",
          "type": "address"
        },
        {
          "internalType": "address",
          "name": "to",
          "type": "address"
        },
        {
          "internalType": "uint256",
          "name": "tokenId",
          "type": "uint256"
        }
      ],
      "name": "safeTransferFrom",
      "outputs": [],
      "stateMutability": "nonpayable",
      "type": "function"
    },
    {
      "inputs": [
        {
          "internalType": "address",
          "name": "from",
          "type": "address"
        },
        {
          "internalType": "address",
          "name": "to",
          "type": "address"
        },
        {
          "internalType": "uint256",
          "name": "tokenId",
          "type": "uint256"
        },
        {
          "internalType": "bytes",
          "name": "data",
          "type": "bytes"
        }
      ],
      "name": "safeTransferFrom",
      "outputs": [],
      "stateMutability": "nonpayable",
      "type": "function"
    },
    {
      "inputs": [
        {
          "internalType": "address",
          "name": "_from",
          "type": "address"
        },
        {
          "internalType": "address",
          "name": "_to",
          "type": "address"
        },
        {
          "internalType": "uint256",
          "name": "_tokenId",
          "type": "uint256"
        }
      ],
      "name": "sellProduct",
      "outputs": [],
      "stateMutability": "nonpayable",
      "type": "function"
    },
    {
      "inputs": [
        {
          "internalType": "address",
          "name": "operator",
          "type": "address"
        },
        {
          "internalType": "bool",
          "name": "approved",
          "type": "bool"
        }
      ],
      "name": "setApprovalForAll",
      "outputs": [],
      "stateMutability": "nonpayable",
      "type": "function"
    },
    {
      "inputs": [
        {
          "internalType": "bytes4",
          "name": "interfaceId",
          "type": "bytes4"
        }
      ],
      "name": "supportsInterface",
      "outputs": [
        {
          "internalType": "bool",
          "name": "",
          "type": "bool"
        }
      ],
      "stateMutability": "view",
      "type": "function"
    },
    {
      "inputs": [],
      "name": "symbol",
      "outputs": [
        {
          "internalType": "string",
          "name": "",
          "type": "string"
        }
      ],
      "stateMutability": "view",
      "type": "function"
    },
    {
      "inputs": [
        {
          "internalType": "uint256",
          "name": "_tokenId",
          "type": "uint256"
        }
      ],
      "name": "timeToExpire",
      "outputs": [
        {
          "internalType": "uint256",
          "name": "",
          "type": "uint256"
        }
      ],
      "stateMutability": "view",
      "type": "function"
    },
    {
      "inputs": [],
      "name": "tokenCounter",
      "outputs": [
        {
          "internalType": "uint256",
          "name": "",
          "type": "uint256"
        }
      ],
      "stateMutability": "view",
      "type": "function"
    },
    {
      "inputs": [
        {
          "internalType": "uint256",
          "name": "tokenId",
          "type": "uint256"
        }
      ],
      "name": "tokenURI",
      "outputs": [
        {
          "internalType": "string",
          "name": "",
          "type": "string"
        }
      ],
      "stateMutability": "view",
      "type": "function"
    },
    {
      "inputs": [
        {
          "internalType": "uint256",
          "name": "",
          "type": "uint256"
        },
        {
          "internalType": "uint256",
          "name": "",
          "type": "uint256"
        }
      ],
      "name": "trackBuyer",
      "outputs": [
        {
          "internalType": "uint256",
          "name": "itemId",
          "type": "uint256"
        },
        {
          "internalType": "address",
          "name": "owner",
          "type": "address"
        },
        {
          "internalType": "uint256",
          "name": "dateOfExpiry",
          "type": "uint256"
        }
      ],
      "stateMutability": "view",
      "type": "function"
    },
    {
      "inputs": [
        {
          "internalType": "uint256",
          "name": "",
          "type": "uint256"
        },
        {
          "internalType": "uint256",
          "name": "",
          "type": "uint256"
        }
      ],
      "name": "trackRepair",
      "outputs": [
        {
          "internalType": "uint256",
          "name": "",
          "type": "uint256"
        }
      ],
      "stateMutability": "view",
      "type": "function"
    },
    {
      "inputs": [
        {
          "internalType": "address",
          "name": "from",
          "type": "address"
        },
        {
          "internalType": "address",
          "name": "to",
          "type": "address"
        },
        {
          "internalType": "uint256",
          "name": "tokenId",
          "type": "uint256"
        }
      ],
      "name": "transferFrom",
      "outputs": [],
      "stateMutability": "nonpayable",
      "type": "function"
    }
  ],
  "bytecode": "0x60806040526000600755600060085560006009553480156200002057600080fd5b50604080518082018252600881526757617272616e747960c01b6020808301918252835180850190945260048452635752545960e01b9084015281519192916200006d916000916200008c565b508051620000839060019060208401906200008c565b5050506200016f565b8280546200009a9062000132565b90600052602060002090601f016020900481019282620000be576000855562000109565b82601f10620000d957805160ff191683800117855562000109565b8280016001018555821562000109579182015b8281111562000109578251825591602001919060010190620000ec565b50620001179291506200011b565b5090565b5b808211156200011757600081556001016200011c565b600181811c908216806200014757607f821691505b602082108114156200016957634e487b7160e01b600052602260045260246000fd5b50919050565b612555806200017f6000396000f3fe608060405234801561001057600080fd5b50600436106101f05760003560e01c806365f6d7981161010f578063b88d4fde116100a2578063df8bd57f11610071578063df8bd57f1461042c578063e03b57931461043f578063e327a6af1461049b578063e985e9c5146104ae57600080fd5b8063b88d4fde146103ea578063c87b56dd146103fd578063d082e38114610410578063d9548e531461041957600080fd5b80638114298c116100de5780638114298c146103865780638273aef0146103bc57806395d89b41146103cf578063a22cb465146103d757600080fd5b806365f6d7981461035a5780636d6d00ed1461036257806370a082311461036b5780637cad11071461037e57600080fd5b80631e1ac4e01161018757806342842e0e1161015657806342842e0e146103185780634d2846991461032b5780634ededc641461033e5780636352211e1461034757600080fd5b80631e1ac4e0146102d757806322cfb05e146102ea57806323b872dd146102fd578063274e92901461031057600080fd5b8063081812fc116101c3578063081812fc14610294578063095ea7b3146102a75780630d92be9e146102bc5780630ef44f2b146102c457600080fd5b806301ffc9a7146101f5578063050feeb01461021d578063055749e41461025e57806306fdde031461027f575b600080fd5b61020861020336600461201c565b6104ea565b60405190151581526020015b60405180910390f35b61024661022b366004612039565b600a602052600090815260409020546001600160a01b031681565b6040516001600160a01b039091168152602001610214565b61027161026c366004612052565b610587565b604051908152602001610214565b610287610625565b60405161021491906120cc565b6102466102a2366004612039565b6106b7565b6102ba6102b53660046120fb565b6106de565b005b600954610271565b6102716102d23660046121b1565b610815565b6102716102e5366004612052565b61096a565b6102ba6102f836600461221c565b61099b565b6102ba61030b366004612248565b610a85565b600854610271565b6102ba610326366004612248565b610afc565b610271610339366004612039565b610b17565b61027160075481565b610246610355366004612039565b610bd0565b600754610271565b61027160095481565b610271610379366004612284565b610c35565b610271610ccf565b610399610394366004612052565b610d11565b604080519384526001600160a01b03909216602084015290820152606001610214565b6102ba6103ca366004612248565b610d5d565b610287610f07565b6102ba6103e536600461229f565b610f16565b6102ba6103f83660046122db565b610f25565b61028761040b366004612039565b610fa3565b61027160085481565b610208610427366004612039565b6110b4565b61027161043a366004612357565b61116c565b61047761044d366004612039565b600b602052600090815260409020805460018201546002909201549091906001600160a01b031683565b6040805193845260208401929092526001600160a01b031690820152606001610214565b6102086104a93660046120fb565b6113ce565b6102086104bc366004612396565b6001600160a01b03918216600090815260056020908152604080832093909416825291909152205460ff1690565b60006001600160e01b031982167f80ac58cd00000000000000000000000000000000000000000000000000000000148061054d57506001600160e01b031982167f5b5e139f00000000000000000000000000000000000000000000000000000000145b8061058157507f01ffc9a7000000000000000000000000000000000000000000000000000000006001600160e01b03198316145b92915050565b6000828152600a60205260408120546001600160a01b031633146105aa57600080fd5b6001600960008282546105bd91906123d6565b909155505060408051606081018252600980548083526020808401968752338486019081526000928352600b90915293902091518255935160018201559051600290910180546001600160a01b0319166001600160a01b039092169190911790555054919050565b606060008054610634906123ee565b80601f0160208091040260200160405190810160405280929190818152602001828054610660906123ee565b80156106ad5780601f10610682576101008083540402835291602001916106ad565b820191906000526020600020905b81548152906001019060200180831161069057829003601f168201915b5050505050905090565b60006106c282611410565b506000908152600460205260409020546001600160a01b031690565b60006106e982610bd0565b9050806001600160a01b0316836001600160a01b031614156107785760405162461bcd60e51b815260206004820152602160248201527f4552433732313a20617070726f76616c20746f2063757272656e74206f776e6560448201527f720000000000000000000000000000000000000000000000000000000000000060648201526084015b60405180910390fd5b336001600160a01b0382161480610794575061079481336104bc565b6108065760405162461bcd60e51b815260206004820152603d60248201527f4552433732313a20617070726f76652063616c6c6572206973206e6f7420746f60448201527f6b656e206f776e6572206f7220617070726f76656420666f7220616c6c000000606482015260840161076f565b6108108383611477565b505050565b600060016008600082825461082a91906123d6565b90915550506008546000908152600260205260409020546001600160a01b0316156108975760405162461bcd60e51b815260206004820152601360248201527f4974656d20616c72656164792065786973742100000000000000000000000000604482015260640161076f565b6108a3846008546114e5565b6108af600854836114ff565b600c600060085481526020019081526020016000206040518060600160405280858152602001866001600160a01b0316815260200162015180426108f39190612429565b6000878152600b602052604090206001015461090f91906123d6565b9052815460018082018455600093845260209384902083516003909302019182559282015192810180546001600160a01b0319166001600160a01b039094169390931790925560400151600290910155505060085492915050565b600d602052816000526040600020818154811061098657600080fd5b90600052602060002001600091509150505481565b6109a4826110b4565b156109f15760405162461bcd60e51b815260206004820152601560248201527f57617272616e7479206861732065787069726564210000000000000000000000604482015260640161076f565b6000828152600c6020526040902080546001600160a01b0383169190610a199060019061244b565b81548110610a2957610a29612462565b60009182526020909120600160039092020101546001600160a01b031614610a5057600080fd5b6000828152600d60205260409020610a6b4262015180612478565b815460018101835560009283526020909220909101555050565b610a8f33826115a8565b610af15760405162461bcd60e51b815260206004820152602d60248201527f4552433732313a2063616c6c6572206973206e6f7420746f6b656e206f776e6560448201526c1c881bdc88185c1c1c9bdd9959609a1b606482015260840161076f565b610810838383611626565b61081083838360405180602001604052806000815250610f25565b6000818152600260205260408120546001600160a01b0316610b7b5760405162461bcd60e51b815260206004820152601560248201527f546f6b656e20646f6573206e6f74206578697374210000000000000000000000604482015260640161076f565b610b886201518042612429565b6000838152600c602052604090208054610ba49060019061244b565b81548110610bb457610bb4612462565b906000526020600020906003020160020154610581919061244b565b6000818152600260205260408120546001600160a01b0316806105815760405162461bcd60e51b815260206004820152601860248201527f4552433732313a20696e76616c696420746f6b656e2049440000000000000000604482015260640161076f565b60006001600160a01b038216610cb35760405162461bcd60e51b815260206004820152602960248201527f4552433732313a2061646472657373207a65726f206973206e6f74206120766160448201527f6c6964206f776e65720000000000000000000000000000000000000000000000606482015260840161076f565b506001600160a01b031660009081526003602052604090205490565b6000600160076000828254610ce491906123d6565b9091555050600780546000908152600a6020526040902080546001600160a01b0319163317905554919050565b600c6020528160005260406000208181548110610d2d57600080fd5b60009182526020909120600390910201805460018201546002909201549093506001600160a01b03909116915083565b6000818152600c6020526040902080546001600160a01b0385169190610d859060019061244b565b81548110610d9557610d95612462565b60009182526020909120600160039092020101546001600160a01b031614610dbc57600080fd5b6000818152600260205260409020546001600160a01b0316610ddd57600080fd5b6000818152600260205260409020546001600160a01b03848116911614610e0357600080fd5b610e0e838383610afc565b6000818152600c602052604090819020815160608101909252805490919081908390610e3c9060019061244b565b81548110610e4c57610e4c612462565b6000918252602080832060039092029091015483526001600160a01b03871683820152858252600c90526040908190208054919092019190610e909060019061244b565b81548110610ea057610ea0612462565b600091825260208083206003928302016002908101549094528554600180820188559684529281902085519390920290910191825583015193810180546001600160a01b0319166001600160a01b0390951694909417909355604090910151910155505050565b606060018054610634906123ee565b610f2133838361182c565b5050565b610f2f33836115a8565b610f915760405162461bcd60e51b815260206004820152602d60248201527f4552433732313a2063616c6c6572206973206e6f7420746f6b656e206f776e6560448201526c1c881bdc88185c1c1c9bdd9959609a1b606482015260840161076f565b610f9d848484846118fb565b50505050565b6060610fae82611410565b60008281526006602052604081208054610fc7906123ee565b80601f0160208091040260200160405190810160405280929190818152602001828054610ff3906123ee565b80156110405780601f1061101557610100808354040283529160200191611040565b820191906000526020600020905b81548152906001019060200180831161102357829003601f168201915b50505050509050600061105e60408051602081019091526000815290565b9050805160001415611071575092915050565b8151156110a357808260405160200161108b929190612497565b60405160208183030381529060405292505050919050565b6110ac84611979565b949350505050565b6000818152600260205260408120546001600160a01b03166111185760405162461bcd60e51b815260206004820152601860248201527f57617272616e747920646f6573206e6f74206578697374210000000000000000604482015260640161076f565b6111256201518042612429565b6000838152600c6020526040902080546111419060019061244b565b8154811061115157611151612462565b90600052602060002090600302016002015411159050919050565b6000848152600a60205260408120546001600160a01b0316331461118f57600080fd5b6000848152600260205260409020546001600160a01b03166111b057600080fd5b6111bd4262015180612478565b6000858152600c6020526040902080546111d99060019061244b565b815481106111e9576111e9612462565b906000526020600020906003020160020154101561120657600080fd5b6000848152600c6020526040902080546001600160a01b038416919061122e9060019061244b565b8154811061123e5761123e612462565b60009182526020909120600160039092020101546001600160a01b03161461126557600080fd5b6000848152600c6020526040908190208151606081019092528054909190819083906112939060019061244b565b815481106112a3576112a3612462565b9060005260206000209060030201600001548152602001846001600160a01b0316815260200185620151806112d89190612478565b6000888152600c6020526040902080546112f49060019061244b565b8154811061130457611304612462565b90600052602060002090600302016002015461132091906123d6565b9052815460018082018455600093845260209384902083516003909302019182559282015192810180546001600160a01b0319166001600160a01b03909416939093179092556040015160029091015561137d4262015180612478565b6000858152600c6020526040902080546113999060019061244b565b815481106113a9576113a9612462565b9060005260206000209060030201600201546113c5919061244b565b95945050505050565b6000818152600260205260408120546001600160a01b03166113ef57600080fd5b506000908152600260205260409020546001600160a01b0390811691161490565b6000818152600260205260409020546001600160a01b03166114745760405162461bcd60e51b815260206004820152601860248201527f4552433732313a20696e76616c696420746f6b656e2049440000000000000000604482015260640161076f565b50565b600081815260046020526040902080546001600160a01b0319166001600160a01b03841690811790915581906114ac82610bd0565b6001600160a01b03167f8c5be1e5ebec7d5bd14f71427d1e84f3dd0314c0f7b2291e5b200ac8c7c3b92560405160405180910390a45050565b610f218282604051806020016040528060008152506119ed565b6000828152600260205260409020546001600160a01b03166115895760405162461bcd60e51b815260206004820152602e60248201527f45524337323155524953746f726167653a2055524920736574206f66206e6f6e60448201527f6578697374656e7420746f6b656e000000000000000000000000000000000000606482015260840161076f565b6000828152600660209081526040909120825161081092840190611f6d565b6000806115b483610bd0565b9050806001600160a01b0316846001600160a01b031614806115fb57506001600160a01b0380821660009081526005602090815260408083209388168352929052205460ff165b806110ac5750836001600160a01b0316611614846106b7565b6001600160a01b031614949350505050565b826001600160a01b031661163982610bd0565b6001600160a01b03161461169d5760405162461bcd60e51b815260206004820152602560248201527f4552433732313a207472616e736665722066726f6d20696e636f72726563742060448201526437bbb732b960d91b606482015260840161076f565b6001600160a01b0382166117185760405162461bcd60e51b8152602060048201526024808201527f4552433732313a207472616e7366657220746f20746865207a65726f2061646460448201527f7265737300000000000000000000000000000000000000000000000000000000606482015260840161076f565b6117258383836001611a6b565b826001600160a01b031661173882610bd0565b6001600160a01b03161461179c5760405162461bcd60e51b815260206004820152602560248201527f4552433732313a207472616e736665722066726f6d20696e636f72726563742060448201526437bbb732b960d91b606482015260840161076f565b600081815260046020908152604080832080546001600160a01b03199081169091556001600160a01b0387811680865260038552838620805460001901905590871680865283862080546001019055868652600290945282852080549092168417909155905184937fddf252ad1be2c89b69c2b068fc378daa952ba7f163c4a11628f55a4df523b3ef91a4505050565b816001600160a01b0316836001600160a01b0316141561188e5760405162461bcd60e51b815260206004820152601960248201527f4552433732313a20617070726f766520746f2063616c6c657200000000000000604482015260640161076f565b6001600160a01b03838116600081815260056020908152604080832094871680845294825291829020805460ff191686151590811790915591519182527f17307eab39ab6107e8899845ad3d59bd9653f200f220920489ca2b5937696c31910160405180910390a3505050565b611906848484611626565b61191284848484611af3565b610f9d5760405162461bcd60e51b815260206004820152603260248201527f4552433732313a207472616e7366657220746f206e6f6e20455243373231526560448201527131b2b4bb32b91034b6b83632b6b2b73a32b960711b606482015260840161076f565b606061198482611410565b600061199b60408051602081019091526000815290565b905060008151116119bb57604051806020016040528060008152506119e6565b806119c584611c48565b6040516020016119d6929190612497565b6040516020818303038152906040525b9392505050565b6119f78383611cf2565b611a046000848484611af3565b6108105760405162461bcd60e51b815260206004820152603260248201527f4552433732313a207472616e7366657220746f206e6f6e20455243373231526560448201527131b2b4bb32b91034b6b83632b6b2b73a32b960711b606482015260840161076f565b6001811115610f9d576001600160a01b03841615611ab1576001600160a01b03841660009081526003602052604081208054839290611aab90849061244b565b90915550505b6001600160a01b03831615610f9d576001600160a01b03831660009081526003602052604081208054839290611ae89084906123d6565b909155505050505050565b60006001600160a01b0384163b15611c4057604051630a85bd0160e11b81526001600160a01b0385169063150b7a0290611b379033908990889088906004016124c6565b602060405180830381600087803b158015611b5157600080fd5b505af1925050508015611b81575060408051601f3d908101601f19168201909252611b7e91810190612502565b60015b611c26573d808015611baf576040519150601f19603f3d011682016040523d82523d6000602084013e611bb4565b606091505b508051611c1e5760405162461bcd60e51b815260206004820152603260248201527f4552433732313a207472616e7366657220746f206e6f6e20455243373231526560448201527131b2b4bb32b91034b6b83632b6b2b73a32b960711b606482015260840161076f565b805181602001fd5b6001600160e01b031916630a85bd0160e11b1490506110ac565b5060016110ac565b60606000611c5583611e8b565b600101905060008167ffffffffffffffff811115611c7557611c75612125565b6040519080825280601f01601f191660200182016040528015611c9f576020820181803683370190505b5090508181016020015b600019017f3031323334353637383961626364656600000000000000000000000000000000600a86061a8153600a8504945084611ce557611cea565b611ca9565b509392505050565b6001600160a01b038216611d485760405162461bcd60e51b815260206004820181905260248201527f4552433732313a206d696e7420746f20746865207a65726f2061646472657373604482015260640161076f565b6000818152600260205260409020546001600160a01b031615611dad5760405162461bcd60e51b815260206004820152601c60248201527f4552433732313a20746f6b656e20616c7265616479206d696e74656400000000604482015260640161076f565b611dbb600083836001611a6b565b6000818152600260205260409020546001600160a01b031615611e205760405162461bcd60e51b815260206004820152601c60248201527f4552433732313a20746f6b656e20616c7265616479206d696e74656400000000604482015260640161076f565b6001600160a01b038216600081815260036020908152604080832080546001019055848352600290915280822080546001600160a01b0319168417905551839291907fddf252ad1be2c89b69c2b068fc378daa952ba7f163c4a11628f55a4df523b3ef908290a45050565b6000807a184f03e93ff9f4daa797ed6e38ed64bf6a1f0100000000000000008310611ed4577a184f03e93ff9f4daa797ed6e38ed64bf6a1f010000000000000000830492506040015b6d04ee2d6d415b85acef81000000008310611f00576d04ee2d6d415b85acef8100000000830492506020015b662386f26fc100008310611f1e57662386f26fc10000830492506010015b6305f5e1008310611f36576305f5e100830492506008015b6127108310611f4a57612710830492506004015b60648310611f5c576064830492506002015b600a83106105815760010192915050565b828054611f79906123ee565b90600052602060002090601f016020900481019282611f9b5760008555611fe1565b82601f10611fb457805160ff1916838001178555611fe1565b82800160010185558215611fe1579182015b82811115611fe1578251825591602001919060010190611fc6565b50611fed929150611ff1565b5090565b5b80821115611fed5760008155600101611ff2565b6001600160e01b03198116811461147457600080fd5b60006020828403121561202e57600080fd5b81356119e681612006565b60006020828403121561204b57600080fd5b5035919050565b6000806040838503121561206557600080fd5b50508035926020909101359150565b60005b8381101561208f578181015183820152602001612077565b83811115610f9d5750506000910152565b600081518084526120b8816020860160208601612074565b601f01601f19169290920160200192915050565b6020815260006119e660208301846120a0565b80356001600160a01b03811681146120f657600080fd5b919050565b6000806040838503121561210e57600080fd5b612117836120df565b946020939093013593505050565b634e487b7160e01b600052604160045260246000fd5b600067ffffffffffffffff8084111561215657612156612125565b604051601f8501601f19908116603f0116810190828211818310171561217e5761217e612125565b8160405280935085815286868601111561219757600080fd5b858560208301376000602087830101525050509392505050565b6000806000606084860312156121c657600080fd5b6121cf846120df565b925060208401359150604084013567ffffffffffffffff8111156121f257600080fd5b8401601f8101861361220357600080fd5b6122128682356020840161213b565b9150509250925092565b6000806040838503121561222f57600080fd5b8235915061223f602084016120df565b90509250929050565b60008060006060848603121561225d57600080fd5b612266846120df565b9250612274602085016120df565b9150604084013590509250925092565b60006020828403121561229657600080fd5b6119e6826120df565b600080604083850312156122b257600080fd5b6122bb836120df565b9150602083013580151581146122d057600080fd5b809150509250929050565b600080600080608085870312156122f157600080fd5b6122fa856120df565b9350612308602086016120df565b925060408501359150606085013567ffffffffffffffff81111561232b57600080fd5b8501601f8101871361233c57600080fd5b61234b8782356020840161213b565b91505092959194509250565b6000806000806080858703121561236d57600080fd5b84359350602085013592506040850135915061238b606086016120df565b905092959194509250565b600080604083850312156123a957600080fd5b6123b2836120df565b915061223f602084016120df565b634e487b7160e01b600052601160045260246000fd5b600082198211156123e9576123e96123c0565b500190565b600181811c9082168061240257607f821691505b6020821081141561242357634e487b7160e01b600052602260045260246000fd5b50919050565b60008261244657634e487b7160e01b600052601260045260246000fd5b500490565b60008282101561245d5761245d6123c0565b500390565b634e487b7160e01b600052603260045260246000fd5b6000816000190483118215151615612492576124926123c0565b500290565b600083516124a9818460208801612074565b8351908301906124bd818360208801612074565b01949350505050565b60006001600160a01b038087168352808616602084015250836040830152608060608301526124f860808301846120a0565b9695505050505050565b60006020828403121561251457600080fd5b81516119e68161200656fea264697066735822122090846355783f1ab3b226dcfded40107a82f18c050124cf0e94c2d8249ecbb0fe64736f6c63430008090033",
  "linkReferences": {},
  "deployedLinkReferences": {}
}