{
  "_format": "hh-sol-artifact-1",
  "contractName": "WarrantyNFT",
  "sourceName": "contracts/Warranty.sol",
  "abi": [
    {
      "inputs": [],
      "stateMutability": "nonpayable",
      "type": "constructor"
    },
    {
      "anonymous": false,
      "inputs": [
        {
          "indexed": true,
          "internalType": "address",
          "name": "owner",
          "type": "address"
        },
        {
          "indexed": true,
          "internalType": "address",
          "name": "approved",
          "type": "address"
        },
        {
          "indexed": true,
          "internalType": "uint256",
          "name": "tokenId",
          "type": "uint256"
        }
      ],
      "name": "Approval",
      "type": "event"
    },
    {
      "anonymous": false,
      "inputs": [
        {
          "indexed": true,
          "internalType": "address",
          "name": "owner",
          "type": "address"
        },
        {
          "indexed": true,
          "internalType": "address",
          "name": "operator",
          "type": "address"
        },
        {
          "indexed": false,
          "internalType": "bool",
          "name": "approved",
          "type": "bool"
        }
      ],
      "name": "ApprovalForAll",
      "type": "event"
    },
    {
      "anonymous": false,
      "inputs": [
        {
          "indexed": true,
          "internalType": "address",
          "name": "from",
          "type": "address"
        },
        {
          "indexed": true,
          "internalType": "address",
          "name": "to",
          "type": "address"
        },
        {
          "indexed": true,
          "internalType": "uint256",
          "name": "tokenId",
          "type": "uint256"
        }
      ],
      "name": "Transfer",
      "type": "event"
    },
    {
      "inputs": [
        {
          "internalType": "address",
          "name": "to",
          "type": "address"
        },
        {
          "internalType": "uint256",
          "name": "tokenId",
          "type": "uint256"
        }
      ],
      "name": "approve",
      "outputs": [],
      "stateMutability": "nonpayable",
      "type": "function"
    },
    {
      "inputs": [
        {
          "internalType": "address",
          "name": "owner",
          "type": "address"
        }
      ],
      "name": "balanceOf",
      "outputs": [
        {
          "internalType": "uint256",
          "name": "",
          "type": "uint256"
        }
      ],
      "stateMutability": "view",
      "type": "function"
    },
    {
      "inputs": [],
      "name": "companyCounter",
      "outputs": [
        {
          "internalType": "uint256",
          "name": "",
          "type": "uint256"
        }
      ],
      "stateMutability": "view",
      "type": "function"
    },
    {
      "inputs": [
        {
          "internalType": "uint256",
          "name": "",
          "type": "uint256"
        }
      ],
      "name": "companyName",
      "outputs": [
        {
          "internalType": "address",
          "name": "",
          "type": "address"
        }
      ],
      "stateMutability": "view",
      "type": "function"
    },
    {
      "inputs": [
        {
          "internalType": "uint256",
          "name": "_companyId",
          "type": "uint256"
        },
        {
          "internalType": "uint256",
          "name": "_tokenId",
          "type": "uint256"
        },
        {
          "internalType": "uint256",
          "name": "_extension",
          "type": "uint256"
        },
        {
          "internalType": "address",
          "name": "_owner",
          "type": "address"
        }
      ],
      "name": "extendWarranty",
      "outputs": [
        {
          "internalType": "uint256",
          "name": "",
          "type": "uint256"
        }
      ],
      "stateMutability": "nonpayable",
      "type": "function"
    },
    {
      "inputs": [
        {
          "internalType": "uint256",
          "name": "tokenId",
          "type": "uint256"
        }
      ],
      "name": "getApproved",
      "outputs": [
        {
          "internalType": "address",
          "name": "",
          "type": "address"
        }
      ],
      "stateMutability": "view",
      "type": "function"
    },
    {
      "inputs": [
        {
          "internalType": "address",
          "name": "owner",
          "type": "address"
        },
        {
          "internalType": "address",
          "name": "operator",
          "type": "address"
        }
      ],
      "name": "isApprovedForAll",
      "outputs": [
        {
          "internalType": "bool",
          "name": "",
          "type": "bool"
        }
      ],
      "stateMutability": "view",
      "type": "function"
    },
    {
      "inputs": [
        {
          "internalType": "uint256",
          "name": "_tokenId",
          "type": "uint256"
        }
      ],
      "name": "isExpired",
      "outputs": [
        {
          "internalType": "bool",
          "name": "",
          "type": "bool"
        }
      ],
      "stateMutability": "view",
      "type": "function"
    },
    {
      "inputs": [
        {
          "internalType": "address",
          "name": "_owner",
          "type": "address"
        },
        {
          "internalType": "uint256",
          "name": "_tokenId",
          "type": "uint256"
        }
      ],
      "name": "isOwner",
      "outputs": [
        {
          "internalType": "bool",
          "name": "",
          "type": "bool"
        }
      ],
      "stateMutability": "view",
      "type": "function"
    },
    {
      "inputs": [],
      "name": "itemCounter",
      "outputs": [
        {
          "internalType": "uint256",
          "name": "",
          "type": "uint256"
        }
      ],
      "stateMutability": "view",
      "type": "function"
    },
    {
      "inputs": [
        {
          "internalType": "uint256",
          "name": "",
          "type": "uint256"
        }
      ],
      "name": "itemStore",
      "outputs": [
        {
          "internalType": "uint256",
          "name": "itemId",
          "type": "uint256"
        },
        {
          "internalType": "uint256",
          "name": "expiry",
          "type": "uint256"
        },
        {
          "internalType": "address",
          "name": "manufacturer",
          "type": "address"
        }
      ],
      "stateMutability": "view",
      "type": "function"
    },
    {
      "inputs": [],
      "name": "name",
      "outputs": [
        {
          "internalType": "string",
          "name": "",
          "type": "string"
        }
      ],
      "stateMutability": "view",
      "type": "function"
    },
    {
      "inputs": [
        {
          "internalType": "uint256",
          "name": "tokenId",
          "type": "uint256"
        }
      ],
      "name": "ownerOf",
      "outputs": [
        {
          "internalType": "address",
          "name": "",
          "type": "address"
        }
      ],
      "stateMutability": "view",
      "type": "function"
    },
    {
      "inputs": [
        {
          "internalType": "uint256",
          "name": "_tokenId",
          "type": "uint256"
        },
        {
          "internalType": "address",
          "name": "_owner",
          "type": "address"
        }
      ],
      "name": "recordRepair",
      "outputs": [],
      "stateMutability": "nonpayable",
      "type": "function"
    },
    {
      "inputs": [
        {
          "internalType": "address",
          "name": "_owner",
          "type": "address"
        },
        {
          "internalType": "uint256",
          "name": "_itemId",
          "type": "uint256"
        },
        {
          "internalType": "string",
          "name": "_tokenURI",
          "type": "string"
        }
      ],
      "name": "redeemWarranty",
      "outputs": [
        {
          "internalType": "uint256",
          "name": "",
          "type": "uint256"
        }
      ],
      "stateMutability": "nonpayable",
      "type": "function"
    },
    {
      "inputs": [],
      "name": "registerCompany",
      "outputs": [
        {
          "internalType": "uint256",
          "name": "",
          "type": "uint256"
        }
      ],
      "stateMutability": "nonpayable",
      "type": "function"
    },
    {
      "inputs": [
        {
          "internalType": "uint256",
          "name": "_companyId",
          "type": "uint256"
        },
        {
          "internalType": "uint256",
          "name": "_expiry",
          "type": "uint256"
        }
      ],
      "name": "registerItem",
      "outputs": [
        {
          "internalType": "uint256",
          "name": "",
          "type": "uint256"
        }
      ],
      "stateMutability": "nonpayable",
      "type": "function"
    },
    {
      "inputs": [],
      "name": "returnLatestCompanyId",
      "outputs": [
        {
          "internalType": "uint256",
          "name": "",
          "type": "uint256"
        }
      ],
      "stateMutability": "view",
      "type": "function"
    },
    {
      "inputs": [],
      "name": "returnLatestItemId",
      "outputs": [
        {
          "internalType": "uint256",
          "name": "",
          "type": "uint256"
        }
      ],
      "stateMutability": "view",
      "type": "function"
    },
    {
      "inputs": [],
      "name": "returnLatestTokenId",
      "outputs": [
        {
          "internalType": "uint256",
          "name": "",
          "type": "uint256"
        }
      ],
      "stateMutability": "view",
      "type": "function"
    },
    {
      "inputs": [
        {
          "internalType": "address",
          "name": "from",
          "type": "address"
        },
        {
          "internalType": "address",
          "name": "to",
          "type": "address"
        },
        {
          "internalType": "uint256",
          "name": "tokenId",
          "type": "uint256"
        }
      ],
      "name": "safeTransferFrom",
      "outputs": [],
      "stateMutability": "nonpayable",
      "type": "function"
    },
    {
      "inputs": [
        {
          "internalType": "address",
          "name": "from",
          "type": "address"
        },
        {
          "internalType": "address",
          "name": "to",
          "type": "address"
        },
        {
          "internalType": "uint256",
          "name": "tokenId",
          "type": "uint256"
        },
        {
          "internalType": "bytes",
          "name": "data",
          "type": "bytes"
        }
      ],
      "name": "safeTransferFrom",
      "outputs": [],
      "stateMutability": "nonpayable",
      "type": "function"
    },
    {
      "inputs": [
        {
          "internalType": "address",
          "name": "_from",
          "type": "address"
        },
        {
          "internalType": "address",
          "name": "_to",
          "type": "address"
        },
        {
          "internalType": "uint256",
          "name": "_tokenId",
          "type": "uint256"
        }
      ],
      "name": "sellProduct",
      "outputs": [],
      "stateMutability": "nonpayable",
      "type": "function"
    },
    {
      "inputs": [
        {
          "internalType": "address",
          "name": "operator",
          "type": "address"
        },
        {
          "internalType": "bool",
          "name": "approved",
          "type": "bool"
        }
      ],
      "name": "setApprovalForAll",
      "outputs": [],
      "stateMutability": "nonpayable",
      "type": "function"
    },
    {
      "inputs": [
        {
          "internalType": "bytes4",
          "name": "interfaceId",
          "type": "bytes4"
        }
      ],
      "name": "supportsInterface",
      "outputs": [
        {
          "internalType": "bool",
          "name": "",
          "type": "bool"
        }
      ],
      "stateMutability": "view",
      "type": "function"
    },
    {
      "inputs": [],
      "name": "symbol",
      "outputs": [
        {
          "internalType": "string",
          "name": "",
          "type": "string"
        }
      ],
      "stateMutability": "view",
      "type": "function"
    },
    {
      "inputs": [
        {
          "internalType": "uint256",
          "name": "_tokenId",
          "type": "uint256"
        }
      ],
      "name": "timeToExpire",
      "outputs": [
        {
          "internalType": "uint256",
          "name": "",
          "type": "uint256"
        }
      ],
      "stateMutability": "view",
      "type": "function"
    },
    {
      "inputs": [],
      "name": "tokenCounter",
      "outputs": [
        {
          "internalType": "uint256",
          "name": "",
          "type": "uint256"
        }
      ],
      "stateMutability": "view",
      "type": "function"
    },
    {
      "inputs": [
        {
          "internalType": "uint256",
          "name": "tokenId",
          "type": "uint256"
        }
      ],
      "name": "tokenURI",
      "outputs": [
        {
          "internalType": "string",
          "name": "",
          "type": "string"
        }
      ],
      "stateMutability": "view",
      "type": "function"
    },
    {
      "inputs": [
        {
          "internalType": "uint256",
          "name": "",
          "type": "uint256"
        },
        {
          "internalType": "uint256",
          "name": "",
          "type": "uint256"
        }
      ],
      "name": "trackBuyer",
      "outputs": [
        {
          "internalType": "uint256",
          "name": "itemId",
          "type": "uint256"
        },
        {
          "internalType": "address",
          "name": "owner",
          "type": "address"
        },
        {
          "internalType": "uint256",
          "name": "dateOfExpiry",
          "type": "uint256"
        }
      ],
      "stateMutability": "view",
      "type": "function"
    },
    {
      "inputs": [
        {
          "internalType": "uint256",
          "name": "",
          "type": "uint256"
        },
        {
          "internalType": "uint256",
          "name": "",
          "type": "uint256"
        }
      ],
      "name": "trackRepair",
      "outputs": [
        {
          "internalType": "uint256",
          "name": "",
          "type": "uint256"
        }
      ],
      "stateMutability": "view",
      "type": "function"
    },
    {
      "inputs": [
        {
          "internalType": "address",
          "name": "from",
          "type": "address"
        },
        {
          "internalType": "address",
          "name": "to",
          "type": "address"
        },
        {
          "internalType": "uint256",
          "name": "tokenId",
          "type": "uint256"
        }
      ],
      "name": "transferFrom",
      "outputs": [],
      "stateMutability": "nonpayable",
      "type": "function"
    }
  ],
  "bytecode": "0x60806040526000600755600060085560006009553480156200002057600080fd5b50604080518082018252600881526757617272616e747960c01b6020808301918252835180850190945260048452635752545960e01b9084015281519192916200006d916000916200008c565b508051620000839060019060208401906200008c565b5050506200016f565b8280546200009a9062000132565b90600052602060002090601f016020900481019282620000be576000855562000109565b82601f10620000d957805160ff191683800117855562000109565b8280016001018555821562000109579182015b8281111562000109578251825591602001919060010190620000ec565b50620001179291506200011b565b5090565b5b808211156200011757600081556001016200011c565b600181811c908216806200014757607f821691505b602082108114156200016957634e487b7160e01b600052602260045260246000fd5b50919050565b61256b806200017f6000396000f3fe608060405234801561001057600080fd5b50600436106101f05760003560e01c806365f6d7981161010f578063b88d4fde116100a2578063df8bd57f11610071578063df8bd57f1461042c578063e03b57931461043f578063e327a6af1461049b578063e985e9c5146104ae57600080fd5b8063b88d4fde146103ea578063c87b56dd146103fd578063d082e38114610410578063d9548e531461041957600080fd5b80638114298c116100de5780638114298c146103865780638273aef0146103bc57806395d89b41146103cf578063a22cb465146103d757600080fd5b806365f6d7981461035a5780636d6d00ed1461036257806370a082311461036b5780637cad11071461037e57600080fd5b80631e1ac4e01161018757806342842e0e1161015657806342842e0e146103185780634d2846991461032b5780634ededc641461033e5780636352211e1461034757600080fd5b80631e1ac4e0146102d757806322cfb05e146102ea57806323b872dd146102fd578063274e92901461031057600080fd5b8063081812fc116101c3578063081812fc14610294578063095ea7b3146102a75780630d92be9e146102bc5780630ef44f2b146102c457600080fd5b806301ffc9a7146101f5578063050feeb01461021d578063055749e41461025e57806306fdde031461027f575b600080fd5b610208610203366004612032565b6104ea565b60405190151581526020015b60405180910390f35b61024661022b36600461204f565b600a602052600090815260409020546001600160a01b031681565b6040516001600160a01b039091168152602001610214565b61027161026c366004612068565b610587565b604051908152602001610214565b610287610625565b60405161021491906120e2565b6102466102a236600461204f565b6106b7565b6102ba6102b5366004612111565b6106de565b005b600954610271565b6102716102d23660046121c7565b610815565b6102716102e5366004612068565b61096a565b6102ba6102f8366004612232565b61099b565b6102ba61030b36600461225e565b610a85565b600854610271565b6102ba61032636600461225e565b610afc565b61027161033936600461204f565b610b17565b61027160075481565b61024661035536600461204f565b610be6565b600754610271565b61027160095481565b61027161037936600461229a565b610c4b565b610271610ce5565b610399610394366004612068565b610d27565b604080519384526001600160a01b03909216602084015290820152606001610214565b6102ba6103ca36600461225e565b610d73565b610287610f1d565b6102ba6103e53660046122b5565b610f2c565b6102ba6103f83660046122f1565b610f3b565b61028761040b36600461204f565b610fb9565b61027160085481565b61020861042736600461204f565b6110ca565b61027161043a36600461236d565b611182565b61047761044d36600461204f565b600b602052600090815260409020805460018201546002909201549091906001600160a01b031683565b6040805193845260208401929092526001600160a01b031690820152606001610214565b6102086104a9366004612111565b6113e4565b6102086104bc3660046123ac565b6001600160a01b03918216600090815260056020908152604080832093909416825291909152205460ff1690565b60006001600160e01b031982167f80ac58cd00000000000000000000000000000000000000000000000000000000148061054d57506001600160e01b031982167f5b5e139f00000000000000000000000000000000000000000000000000000000145b8061058157507f01ffc9a7000000000000000000000000000000000000000000000000000000006001600160e01b03198316145b92915050565b6000828152600a60205260408120546001600160a01b031633146105aa57600080fd5b6001600960008282546105bd91906123ec565b909155505060408051606081018252600980548083526020808401968752338486019081526000928352600b90915293902091518255935160018201559051600290910180546001600160a01b0319166001600160a01b039092169190911790555054919050565b60606000805461063490612404565b80601f016020809104026020016040519081016040528092919081815260200182805461066090612404565b80156106ad5780601f10610682576101008083540402835291602001916106ad565b820191906000526020600020905b81548152906001019060200180831161069057829003601f168201915b5050505050905090565b60006106c282611426565b506000908152600460205260409020546001600160a01b031690565b60006106e982610be6565b9050806001600160a01b0316836001600160a01b031614156107785760405162461bcd60e51b815260206004820152602160248201527f4552433732313a20617070726f76616c20746f2063757272656e74206f776e6560448201527f720000000000000000000000000000000000000000000000000000000000000060648201526084015b60405180910390fd5b336001600160a01b0382161480610794575061079481336104bc565b6108065760405162461bcd60e51b815260206004820152603d60248201527f4552433732313a20617070726f76652063616c6c6572206973206e6f7420746f60448201527f6b656e206f776e6572206f7220617070726f76656420666f7220616c6c000000606482015260840161076f565b610810838361148d565b505050565b600060016008600082825461082a91906123ec565b90915550506008546000908152600260205260409020546001600160a01b0316156108975760405162461bcd60e51b815260206004820152601360248201527f4974656d20616c72656164792065786973742100000000000000000000000000604482015260640161076f565b6108a3846008546114fb565b6108af60085483611515565b600c600060085481526020019081526020016000206040518060600160405280858152602001866001600160a01b0316815260200162015180426108f3919061243f565b6000878152600b602052604090206001015461090f91906123ec565b9052815460018082018455600093845260209384902083516003909302019182559282015192810180546001600160a01b0319166001600160a01b039094169390931790925560400151600290910155505060085492915050565b600d602052816000526040600020818154811061098657600080fd5b90600052602060002001600091509150505481565b6109a4826110ca565b156109f15760405162461bcd60e51b815260206004820152601560248201527f57617272616e7479206861732065787069726564210000000000000000000000604482015260640161076f565b6000828152600c6020526040902080546001600160a01b0383169190610a1990600190612461565b81548110610a2957610a29612478565b60009182526020909120600160039092020101546001600160a01b031614610a5057600080fd5b6000828152600d60205260409020610a6b426201518061248e565b815460018101835560009283526020909220909101555050565b610a8f33826115be565b610af15760405162461bcd60e51b815260206004820152602d60248201527f4552433732313a2063616c6c6572206973206e6f7420746f6b656e206f776e6560448201526c1c881bdc88185c1c1c9bdd9959609a1b606482015260840161076f565b61081083838361163c565b61081083838360405180602001604052806000815250610f3b565b6000818152600260205260408120546001600160a01b0316610b7b5760405162461bcd60e51b815260206004820152601560248201527f546f6b656e20646f6573206e6f74206578697374210000000000000000000000604482015260640161076f565b610b84826110ca565b15610b9157506000919050565b610b9e620151804261243f565b6000838152600c602052604090208054610bba90600190612461565b81548110610bca57610bca612478565b9060005260206000209060030201600201546105819190612461565b6000818152600260205260408120546001600160a01b0316806105815760405162461bcd60e51b815260206004820152601860248201527f4552433732313a20696e76616c696420746f6b656e2049440000000000000000604482015260640161076f565b60006001600160a01b038216610cc95760405162461bcd60e51b815260206004820152602960248201527f4552433732313a2061646472657373207a65726f206973206e6f74206120766160448201527f6c6964206f776e65720000000000000000000000000000000000000000000000606482015260840161076f565b506001600160a01b031660009081526003602052604090205490565b6000600160076000828254610cfa91906123ec565b9091555050600780546000908152600a6020526040902080546001600160a01b0319163317905554919050565b600c6020528160005260406000208181548110610d4357600080fd5b60009182526020909120600390910201805460018201546002909201549093506001600160a01b03909116915083565b6000818152600c6020526040902080546001600160a01b0385169190610d9b90600190612461565b81548110610dab57610dab612478565b60009182526020909120600160039092020101546001600160a01b031614610dd257600080fd5b6000818152600260205260409020546001600160a01b0316610df357600080fd5b6000818152600260205260409020546001600160a01b03848116911614610e1957600080fd5b610e24838383610afc565b6000818152600c602052604090819020815160608101909252805490919081908390610e5290600190612461565b81548110610e6257610e62612478565b6000918252602080832060039092029091015483526001600160a01b03871683820152858252600c90526040908190208054919092019190610ea690600190612461565b81548110610eb657610eb6612478565b600091825260208083206003928302016002908101549094528554600180820188559684529281902085519390920290910191825583015193810180546001600160a01b0319166001600160a01b0390951694909417909355604090910151910155505050565b60606001805461063490612404565b610f37338383611842565b5050565b610f4533836115be565b610fa75760405162461bcd60e51b815260206004820152602d60248201527f4552433732313a2063616c6c6572206973206e6f7420746f6b656e206f776e6560448201526c1c881bdc88185c1c1c9bdd9959609a1b606482015260840161076f565b610fb384848484611911565b50505050565b6060610fc482611426565b60008281526006602052604081208054610fdd90612404565b80601f016020809104026020016040519081016040528092919081815260200182805461100990612404565b80156110565780601f1061102b57610100808354040283529160200191611056565b820191906000526020600020905b81548152906001019060200180831161103957829003601f168201915b50505050509050600061107460408051602081019091526000815290565b9050805160001415611087575092915050565b8151156110b95780826040516020016110a19291906124ad565b60405160208183030381529060405292505050919050565b6110c28461198f565b949350505050565b6000818152600260205260408120546001600160a01b031661112e5760405162461bcd60e51b815260206004820152601860248201527f57617272616e747920646f6573206e6f74206578697374210000000000000000604482015260640161076f565b61113b620151804261243f565b6000838152600c60205260409020805461115790600190612461565b8154811061116757611167612478565b90600052602060002090600302016002015411159050919050565b6000848152600a60205260408120546001600160a01b031633146111a557600080fd5b6000848152600260205260409020546001600160a01b03166111c657600080fd5b6111d3426201518061248e565b6000858152600c6020526040902080546111ef90600190612461565b815481106111ff576111ff612478565b906000526020600020906003020160020154101561121c57600080fd5b6000848152600c6020526040902080546001600160a01b038416919061124490600190612461565b8154811061125457611254612478565b60009182526020909120600160039092020101546001600160a01b03161461127b57600080fd5b6000848152600c6020526040908190208151606081019092528054909190819083906112a990600190612461565b815481106112b9576112b9612478565b9060005260206000209060030201600001548152602001846001600160a01b0316815260200185620151806112ee919061248e565b6000888152600c60205260409020805461130a90600190612461565b8154811061131a5761131a612478565b90600052602060002090600302016002015461133691906123ec565b9052815460018082018455600093845260209384902083516003909302019182559282015192810180546001600160a01b0319166001600160a01b039094169390931790925560400151600290910155611393426201518061248e565b6000858152600c6020526040902080546113af90600190612461565b815481106113bf576113bf612478565b9060005260206000209060030201600201546113db9190612461565b95945050505050565b6000818152600260205260408120546001600160a01b031661140557600080fd5b506000908152600260205260409020546001600160a01b0390811691161490565b6000818152600260205260409020546001600160a01b031661148a5760405162461bcd60e51b815260206004820152601860248201527f4552433732313a20696e76616c696420746f6b656e2049440000000000000000604482015260640161076f565b50565b600081815260046020526040902080546001600160a01b0319166001600160a01b03841690811790915581906114c282610be6565b6001600160a01b03167f8c5be1e5ebec7d5bd14f71427d1e84f3dd0314c0f7b2291e5b200ac8c7c3b92560405160405180910390a45050565b610f37828260405180602001604052806000815250611a03565b6000828152600260205260409020546001600160a01b031661159f5760405162461bcd60e51b815260206004820152602e60248201527f45524337323155524953746f726167653a2055524920736574206f66206e6f6e60448201527f6578697374656e7420746f6b656e000000000000000000000000000000000000606482015260840161076f565b6000828152600660209081526040909120825161081092840190611f83565b6000806115ca83610be6565b9050806001600160a01b0316846001600160a01b0316148061161157506001600160a01b0380821660009081526005602090815260408083209388168352929052205460ff165b806110c25750836001600160a01b031661162a846106b7565b6001600160a01b031614949350505050565b826001600160a01b031661164f82610be6565b6001600160a01b0316146116b35760405162461bcd60e51b815260206004820152602560248201527f4552433732313a207472616e736665722066726f6d20696e636f72726563742060448201526437bbb732b960d91b606482015260840161076f565b6001600160a01b03821661172e5760405162461bcd60e51b8152602060048201526024808201527f4552433732313a207472616e7366657220746f20746865207a65726f2061646460448201527f7265737300000000000000000000000000000000000000000000000000000000606482015260840161076f565b61173b8383836001611a81565b826001600160a01b031661174e82610be6565b6001600160a01b0316146117b25760405162461bcd60e51b815260206004820152602560248201527f4552433732313a207472616e736665722066726f6d20696e636f72726563742060448201526437bbb732b960d91b606482015260840161076f565b600081815260046020908152604080832080546001600160a01b03199081169091556001600160a01b0387811680865260038552838620805460001901905590871680865283862080546001019055868652600290945282852080549092168417909155905184937fddf252ad1be2c89b69c2b068fc378daa952ba7f163c4a11628f55a4df523b3ef91a4505050565b816001600160a01b0316836001600160a01b031614156118a45760405162461bcd60e51b815260206004820152601960248201527f4552433732313a20617070726f766520746f2063616c6c657200000000000000604482015260640161076f565b6001600160a01b03838116600081815260056020908152604080832094871680845294825291829020805460ff191686151590811790915591519182527f17307eab39ab6107e8899845ad3d59bd9653f200f220920489ca2b5937696c31910160405180910390a3505050565b61191c84848461163c565b61192884848484611b09565b610fb35760405162461bcd60e51b815260206004820152603260248201527f4552433732313a207472616e7366657220746f206e6f6e20455243373231526560448201527131b2b4bb32b91034b6b83632b6b2b73a32b960711b606482015260840161076f565b606061199a82611426565b60006119b160408051602081019091526000815290565b905060008151116119d157604051806020016040528060008152506119fc565b806119db84611c5e565b6040516020016119ec9291906124ad565b6040516020818303038152906040525b9392505050565b611a0d8383611d08565b611a1a6000848484611b09565b6108105760405162461bcd60e51b815260206004820152603260248201527f4552433732313a207472616e7366657220746f206e6f6e20455243373231526560448201527131b2b4bb32b91034b6b83632b6b2b73a32b960711b606482015260840161076f565b6001811115610fb3576001600160a01b03841615611ac7576001600160a01b03841660009081526003602052604081208054839290611ac1908490612461565b90915550505b6001600160a01b03831615610fb3576001600160a01b03831660009081526003602052604081208054839290611afe9084906123ec565b909155505050505050565b60006001600160a01b0384163b15611c5657604051630a85bd0160e11b81526001600160a01b0385169063150b7a0290611b4d9033908990889088906004016124dc565b602060405180830381600087803b158015611b6757600080fd5b505af1925050508015611b97575060408051601f3d908101601f19168201909252611b9491810190612518565b60015b611c3c573d808015611bc5576040519150601f19603f3d011682016040523d82523d6000602084013e611bca565b606091505b508051611c345760405162461bcd60e51b815260206004820152603260248201527f4552433732313a207472616e7366657220746f206e6f6e20455243373231526560448201527131b2b4bb32b91034b6b83632b6b2b73a32b960711b606482015260840161076f565b805181602001fd5b6001600160e01b031916630a85bd0160e11b1490506110c2565b5060016110c2565b60606000611c6b83611ea1565b600101905060008167ffffffffffffffff811115611c8b57611c8b61213b565b6040519080825280601f01601f191660200182016040528015611cb5576020820181803683370190505b5090508181016020015b600019017f3031323334353637383961626364656600000000000000000000000000000000600a86061a8153600a8504945084611cfb57611d00565b611cbf565b509392505050565b6001600160a01b038216611d5e5760405162461bcd60e51b815260206004820181905260248201527f4552433732313a206d696e7420746f20746865207a65726f2061646472657373604482015260640161076f565b6000818152600260205260409020546001600160a01b031615611dc35760405162461bcd60e51b815260206004820152601c60248201527f4552433732313a20746f6b656e20616c7265616479206d696e74656400000000604482015260640161076f565b611dd1600083836001611a81565b6000818152600260205260409020546001600160a01b031615611e365760405162461bcd60e51b815260206004820152601c60248201527f4552433732313a20746f6b656e20616c7265616479206d696e74656400000000604482015260640161076f565b6001600160a01b038216600081815260036020908152604080832080546001019055848352600290915280822080546001600160a01b0319168417905551839291907fddf252ad1be2c89b69c2b068fc378daa952ba7f163c4a11628f55a4df523b3ef908290a45050565b6000807a184f03e93ff9f4daa797ed6e38ed64bf6a1f0100000000000000008310611eea577a184f03e93ff9f4daa797ed6e38ed64bf6a1f010000000000000000830492506040015b6d04ee2d6d415b85acef81000000008310611f16576d04ee2d6d415b85acef8100000000830492506020015b662386f26fc100008310611f3457662386f26fc10000830492506010015b6305f5e1008310611f4c576305f5e100830492506008015b6127108310611f6057612710830492506004015b60648310611f72576064830492506002015b600a83106105815760010192915050565b828054611f8f90612404565b90600052602060002090601f016020900481019282611fb15760008555611ff7565b82601f10611fca57805160ff1916838001178555611ff7565b82800160010185558215611ff7579182015b82811115611ff7578251825591602001919060010190611fdc565b50612003929150612007565b5090565b5b808211156120035760008155600101612008565b6001600160e01b03198116811461148a57600080fd5b60006020828403121561204457600080fd5b81356119fc8161201c565b60006020828403121561206157600080fd5b5035919050565b6000806040838503121561207b57600080fd5b50508035926020909101359150565b60005b838110156120a557818101518382015260200161208d565b83811115610fb35750506000910152565b600081518084526120ce81602086016020860161208a565b601f01601f19169290920160200192915050565b6020815260006119fc60208301846120b6565b80356001600160a01b038116811461210c57600080fd5b919050565b6000806040838503121561212457600080fd5b61212d836120f5565b946020939093013593505050565b634e487b7160e01b600052604160045260246000fd5b600067ffffffffffffffff8084111561216c5761216c61213b565b604051601f8501601f19908116603f011681019082821181831017156121945761219461213b565b816040528093508581528686860111156121ad57600080fd5b858560208301376000602087830101525050509392505050565b6000806000606084860312156121dc57600080fd5b6121e5846120f5565b925060208401359150604084013567ffffffffffffffff81111561220857600080fd5b8401601f8101861361221957600080fd5b61222886823560208401612151565b9150509250925092565b6000806040838503121561224557600080fd5b82359150612255602084016120f5565b90509250929050565b60008060006060848603121561227357600080fd5b61227c846120f5565b925061228a602085016120f5565b9150604084013590509250925092565b6000602082840312156122ac57600080fd5b6119fc826120f5565b600080604083850312156122c857600080fd5b6122d1836120f5565b9150602083013580151581146122e657600080fd5b809150509250929050565b6000806000806080858703121561230757600080fd5b612310856120f5565b935061231e602086016120f5565b925060408501359150606085013567ffffffffffffffff81111561234157600080fd5b8501601f8101871361235257600080fd5b61236187823560208401612151565b91505092959194509250565b6000806000806080858703121561238357600080fd5b8435935060208501359250604085013591506123a1606086016120f5565b905092959194509250565b600080604083850312156123bf57600080fd5b6123c8836120f5565b9150612255602084016120f5565b634e487b7160e01b600052601160045260246000fd5b600082198211156123ff576123ff6123d6565b500190565b600181811c9082168061241857607f821691505b6020821081141561243957634e487b7160e01b600052602260045260246000fd5b50919050565b60008261245c57634e487b7160e01b600052601260045260246000fd5b500490565b600082821015612473576124736123d6565b500390565b634e487b7160e01b600052603260045260246000fd5b60008160001904831182151516156124a8576124a86123d6565b500290565b600083516124bf81846020880161208a565b8351908301906124d381836020880161208a565b01949350505050565b60006001600160a01b0380871683528086166020840152508360408301526080606083015261250e60808301846120b6565b9695505050505050565b60006020828403121561252a57600080fd5b81516119fc8161201c56fea2646970667358221220bedb3df3a1e18e2f93c957efae25aa6fbaad55e5acb6972cb3345970cfd8313a64736f6c63430008090033",
  "linkReferences": {},
  "deployedLinkReferences": {}
}